:020000040800F2
:1000000000500020411000088710000889100008E7
:100010008B1000088D1000088F10000800000000F1
:100020000000000000000000000000009110000827
:10003000931000080000000095100008D10100088E
:100040009B1000089D1000089F100008A1100008D8
:10005000A3100008A5100008A7100008A9100008A8
:10006000AB100008AD100008AF100008B110000878
:10007000B3100008B5100008B7100008B910000848
:10008000BB100008BD100008BF100008C110000818
:10009000C3100008C5100008C7100008C9100008E8
:1000A000CB100008CD100008CF100008D1100008B8
:1000B000810A0008D5100008D7100008D9100008E0
:1000C000DB100008DD100008DF100008E110000858
:1000D000E3100008FD030008E7100008C90300084A
:1000E000EB100008ED100008EF10000810B5054CEB
:1000F000237833B9044B13B10448AFF300800123D4
:10010000237010BD8C00002000000000A822000811
:10011000084B10B51BB108490848AFF300800848E8
:10012000036803B910BD074B002BFBD0BDE810409E
:10013000184700BF0000000090000020A82200081F
:100140008C00002000000000154B002B08BF134B53
:100150009D46A3F5803A00218B460F461348144A6A
:10016000121A01F085F80F4B002B00D098470E4B68
:10017000002B00D098470020002104000D000D48FE
:10018000002802D00C48AFF3008001F04BF82000AB
:10019000290000F0E7FE01F031F800BF0000080080
:1001A0000050002000000000000000008C00002033
:1001B000C00200200000000000000000034B6FF0B0
:1001C0007F41072259601A60704700BF10E000E0CD
:1001D000024A136801331360704700BF000000201B
:1001E000A0B130B40A4D0B4C2968A368C3EB016180
:1001F00001F58C3101F5A0712A68A368C3EB026395
:10020000CB1A002BF8DC0138EED130BC704700BFB0
:100210000000002010E000E030B5234C87B0012141
:1002200044F2040000F094FA4FF49645002320466F
:100230000C2202A9ADF80C30ADF80E30ADF810303C
:10024000ADF814300295ADF8122000F013FB2046F3
:10025000012240F2255100F079FB144B202205F1D8
:10026000804505F53D4520465A60012100F060FBC0
:100270004FF40074284601A9012218238DF80620A6
:100280008DF80730ADF8044000F0A4F94FF4806217
:10029000282301A92846ADF804208DF8073000F086
:1002A00099F907B030BD00BF0038014000E100E01F
:1002B00072B170B4074C8E18254623881B06FCD5F6
:1002C00011F8013B8E42AB80F7D1104670BC7047ED
:1002D000104670470038014070B5064686B00121CF
:1002E000082000F035FA204D01214FF4802000F065
:1002F0003DFA4FF480631D4C284601A91822ADF841
:10030000043003238DF807208DF8063000F062F9E1
:1003100001A928464FF400620423ADF804208DF8AB
:10032000073000F057F9002320460C2202A9ADF84F
:100330000C30ADF80E30ADF81030ADF81430ADF82B
:100340001220029600F096FA2046012240F2255132
:1003500000F0FCFA064B802220465A60012100F092
:10036000E7FA06B070BD00BF000C01400048004035
:1003700000E100E0002310B58380044600F002FB9A
:100380008021204600F006FB0028F9D010BD00BFF8
:1003900038B50C46097839B105462846FFF7EAFF1B
:1003A00014F8011F0029F8D138BD00BF10B504466C
:1003B0002021204600F0EEFA0028F9D0204600F077
:1003C000E5FAC0B210BD00BF10B50948FFF7EEFF57
:1003D0000849094A0C78631CDBB210551A4412F81C
:1003E000012C0B700A2A04BF00230B7010BD00BF44
:1003F00000480040A9000020B800002010B50948BE
:10040000FFF7D4FF0849094A0C78631CDBB210558A
:100410001A4412F8012C0B700A2A04BF00230B7037
:1004200010BD00BF00380140A8000020B801002026
:100430000D49CB680C4ADB07FBD41146136943F026
:10044000020313615061136943F040031361CB68E9
:10045000054ADB07FBD4136923F001031361136919
:1004600023F002031361704700200240F8B50D46E7
:10047000164C064600F0A2F82369284643F0010313
:10048000236100F02BFF124F10F0FF0F38700ED0D9
:100490003046224600216C1ED368DD07FCD414F8D8
:1004A000013F013120F8023B3B788B42F4DC0749E5
:1004B000CB68064ADB07FBD4136923F00103136101
:1004C000136943F080031361F8BD00BF00200240B0
:1004D000B802002070B50D461646044600F0FEFE38
:1004E000C0B240B1411EC9B22144631E002203F8CC
:1004F000012F8B42FBD14EB12046A91EA21931F823
:10050000023F00F8013B9042F9D170BD70BD00BFC1
:1005100038B50C46054600F051F82046FFF788FF35
:1005200029462046FFF7A2FF6420FFF759FEBDE8E9
:10053000384000F04DB800BFC3785BB903780121A3
:100540005A09164803F01F03203201FA03F340F85A
:100550002230704730B4124B8278D9684478C9434E
:100560000F23C1F30221C1F10405CB40AC4013407D
:10057000027823431B0102F16042DBB202F56142C3
:1005800082F800330378012203F01F0003495B095E
:10059000824041F8232030BC704700BF00E100E0FA
:1005A00000ED00E0024B0349034A59605A6070476E
:1005B0000020024023016745AB89EFCDFFF7F2BF72
:1005C000024A136943F08003136170470020024020
:1005D000FFF7F6BFCB782DE9F04103F00F06DB06FD
:1005E00048BF8B780C8848BF1E4314F0FF0F26D0FD
:1005F0000568002301274FF00F0803E00133082BA3
:100600001BD00C8807FA03F232EA0404F6D19C00EE
:1006100091F803E008FA04FC25EA0C0506FA04F454
:10062000BEF1280F45EA040538D0BEF1480F03F1AA
:10063000010308BF0261082BE3D105600C88FF2C81
:100640002AD94568002301274FF00F0C03E001333E
:10065000082B20D00C8803F1080207FA02F232EAD4
:100660000404F4D191F803E09C00BEF1280F04BF0C
:10067000426191F803E00CFA04F8BEF1480F03F16F
:10068000010325EA080506FA04F408BF0261082BF5
:1006900045EA0405DED14560BDE8F0814261ADE781
:1006A0008368194214BF0120002070470161704720
:1006B0004161704730B4214A536803F00C03042BA6
:1006C00006D0082B25D01BB11D4A1346026001E05D
:1006D0001B4B0360194A1B4C51681B4DC1F303119E
:1006E000615CCB4043605168C1F30221615C23FA35
:1006F00001F181605168C1F3C221615CCB40C360EC
:100700005268C2F38132AA5C30BCB3FBF2F30361DE
:10071000704753685168C3F38343C90303F102036D
:1007200007D55268920304D4054A02FB03F3036021
:10073000D0E7064A02FB03F30360CBE70010024058
:1007400000127A00080000200400002000093D008B
:1007500029B9054A936923EA000090617047024B6A
:100760009A691043986170470010024029B9054A00
:10077000D36923EA0000D0617047024BDA69104365
:10078000D861704700100240254A038890429BB20E
:1007900012D002F5006290420ED0B0F1804F0BD023
:1007A000A2F59832904207D002F58062904203D0C1
:1007B00002F58062904203D14A8823F0700313430C
:1007C000184A904224D002F58062904220D0CA8814
:1007D00023F440739BB2134303808A88104B8285B5
:1007E0000A88984202850ED00F4B98420BD003F531
:1007F0004063984207D003F58063984203D003F525
:100800008063984201D10B7A03860123838270476B
:1008100003808B8883850B8803850123838270473F
:10082000002C01400010004000340140038829B929
:1008300023F001031B041B0C038070479BB243F0A1
:1008400001030380704700BF83899BB21AB923EA72
:10085000010181817047194381817047FFF7F4BF1F
:10086000038A194214BF012000207047C94389B28E
:100870000182704730B504460D46038ACA889BB290
:1008800023F440531343038282890B89888892B2F0
:100890004989034322F4B0520B4322F00C02134364
:1008A0009BB2A381A38AAA899BB223F4407387B029
:1008B0001343A38201A8FFF7FDFE04991A48039B86
:1008C000A289844208BF0B4612F4004F2A6803EB4A
:1008D000830314BF5200920003EB8303B3FBF2F3D4
:1008E000124DA189A5FB03206422400900FB1233AD
:1008F0000A044FEA00100AD41A013232A5FB02237F
:10090000C3F3431303439BB2238107B030BDD90027
:100910003231A5FB0131C1F3421242EA00039BB21E
:10092000238107B030BD00BF003801401F85EB5167
:10093000838929B923F400531B041B0C838170475E
:100940009BB243F400538381704700BF10B401F0A1
:100950001F04C1F342110123012903FA04F30FD04C
:1009600002290CBF103014302AB9026822EA0303AE
:10097000036010BC704702681343036010BC7047EB
:100980000C30F1E7C1F30801818070478088C0F323
:10099000080070470388194214BF012000207047E7
:1009A0002DE9F0410D462C2117461E46804600F0E9
:1009B0007FFC044628B1002341462846237000F0FE
:1009C00085FC651C28462C2100F072FC044628B1E9
:1009D000002329463846237000F078FC651C284621
:1009E0002C2100F065FC044628B10023294630463E
:1009F000237000F06BFC013420462C2100F058FCE1
:100A000028B1002303702146069800F05FFC012006
:100A1000BDE8F08110B5012184B00846FFF7A6FEBD
:100A200042F20F7341F61F42002401A94FF08040AB
:100A3000ADF80830ADF80420ADF80640FFF7A4FE8D
:100A400001214FF08040FFF711FF012211464FF0C6
:100A50008040FFF703FF01214FF08040FFF7E6FEE3
:100A60001C22012368468DF801408DF802408DF864
:100A700000208DF80330FFF75FFD04B010BD00BF0C
:100A800008B501214FF08040FFF7EAFEF8B1164BA0
:100A900016481A7800210132D2B21A7001701A7801
:100AA000012A04BF124A11701A78032A14D01A7846
:100AB000052A0DD01B780C4A0A2B84BF0023137023
:100AC00001214FF08040BDE80840FFF7CFBE08BDD0
:100AD000084A00211170EDE7074A002111701A78C9
:100AE000052AE7D1F4E700BFAB0000201A00002080
:100AF00018000020190000201C00002070B5012102
:100B000082B01E4E1820FFF723FE0124102501A9F4
:100B10004FF400531A488DF80750ADF804308DF8A3
:100B20000640FFF757FD01A930464FF4E0438DF82A
:100B30000750ADF8043048258DF80640FFF74AFD10
:100B40004FF44073304601A9ADF804308DF80640EB
:100B50008DF80750FFF73EFD21460420FFF7F8FD12
:100B6000272301A907488DF807508DF80640ADF8F6
:100B70000430FFF72FFD02B070BD00BF000C014034
:100B8000001001400008014038B504460D46FFF74B
:100B900087FD012803D029462046FFF781FD38BD97
:100BA00070B5164604460D46FFF77AFD012804D0BD
:100BB00029462046FFF774FD70BD307070BD00BF40
:100BC00030B504469FB018A816224649FFF782FCAC
:100BD00006AD3CB10EAB0093204629460AAB14AAE1
:100BE000FFF7DEFE0CA9009118A804A908AB10AA13
:100BF000FFF7D6FE28463C4900F078FB002848D095
:100C000010A814A900F072FB002842D008A90AA875
:100C100000F06CFB00283CD034490EA800F066FBC5
:100C2000002836D0324C00234FF4805131482370D5
:100C3000FFF73CFD4FF400512E48FFF739FD0DF151
:100C40000F024FF400712B48FFF7AAFF9DF80F30F9
:100C5000002BF4D14FF480512648FFF729FD4FF4C3
:100C600000512448FFF724FD234A2149154601205D
:100C700001E013787BB12378092BFAD902211F48B0
:100C80000DF10D02FFF78CFF02211C48FFF708FD54
:100C900038B11FB030BD0B780133DBB20B70287058
:100CA000E9E74FF400511348FFF700FD4FF480517E
:100CB0001048FFF7FDFC0DF10E024FF480710F4854
:100CC000FFF76EFF9DF80E30002BE2D14FF48051FC
:100CD0000848FFF7EDFC4FF400510648FFF7E8FC29
:100CE000D7E700BF007C00088C2100089421000891
:100CF0001B000020000C01401A00002000080140E9
:100D000030B5244D87B004462A4601212248FFF71A
:100D10003BFF2B7827E0FFF7C9FC2049204600F075
:100D2000E5FA1F49A0B11F48FFF732FB21461D48D5
:100D3000FFF72EFB72B61C492046FFF7E9FB62B6AF
:100D4000204600F0CBFA00210246204600F090FA3F
:100D5000154968461622FFF7BDFB68460F4900F0AB
:100D6000C5FA30B92B7820210B48002BD3D107B01E
:100D700030BD0E490B48FFF70BFB69460948FFF7EA
:100D800007FB20210448FFF793FC002213462A703A
:100D9000E9E700BFAA000020000801409C210008EC
:100DA000A421000800480040007C0008B821000889
:100DB00000B593B00CA816220949FFF78BFB06A9D2
:100DC00004AB08AA00910CA802A9FFF7E9FD04AA48
:100DD00008A9044800F054FA13B05DF804FB00BF02
:100DE000007C0008C821000800B54FF4805195B080
:100DF0001548FFF75DFC4FF400511348FFF758FC0E
:100E0000162212490EA8FFF765FB08A906AB0AAA2D
:100E100000910EA804A9FFF7C3FD0DF10F020221F6
:100E20000B48FFF7BDFE9DF80F3006AA0AA92BB9A3
:100E3000084800F025FA15B05DF804FB064800F0FC
:100E40001FFA15B05DF804FB000C0140007C00089F
:100E500000080140F0210008DC21000830B583B013
:100E60000DF1050204213B48FFF79AFE0DF1060241
:100E70004FF480713848FFF793FE9DF8053013B9A1
:100E80009DF806300BB103B030BD344C2021314801
:100E90002370FFF70BFC4FF480512F48FFF706FC3F
:100EA0004FF400512C48FFF703FC0DF107024FF4FB
:100EB00000712948FFF774FE9DF80730002BF4D12C
:100EC0004FF480512448FFF7F3FB4FF400512248C0
:100ED000FFF7EEFB224A21491546012001E0137875
:100EE00033B32378092BFAD902211A4801AAFFF754
:100EF00057FE02211748FFF7D3FB0028C3D14FF458
:100F000000511548FFF7D2FB4FF480511248FFF70C
:100F1000CFFB0DF106024FF480710F48FFF740FE42
:100F20009DF8063053B120210A48FFF7C1FBAAE71C
:100F30000B780133DBB20B702870D2E74FF480518D
:100F40000548FFF7B5FB4FF400510348FFF7B0FB2E
:100F5000E9E700BF00080140000C01401B00002031
:100F60001A00002080B5FFF729F9FFF753FDFFF7BE
:100F7000C5FD4FF49640FFF74FF9294D4FF49640C9
:100F8000FFF7AAF920212748A946FFF791FBDFF8D0
:100F9000A480254C254F264E2648FFF7B1FEFFF7CB
:100FA0005DFF2549234800F0A1F930B1002319461F
:100FB00080222048237000F05BF92378DBB2012BFC
:100FC00021D02378032B0BD02378052BE4D1337861
:100FD000174A002BE0D101231370FFF7E9FEDBE78E
:100FE0003B78124A002BEFD10123124913481370AA
:100FF000FFF7CEF998F800306BB9802200210D4838
:1010000000F036F9E0E72A78002ADAD189F80030D2
:10101000FFF7EAFED5E70748FFF7D2FDEDE700BF8F
:101020001800002000080140AB0000201C00002038
:1010300019000020B80100200422000800480040E8
:101040000649074A074B9A42BEBF51F8040B42F8C3
:10105000040BF8E70448804704480047B42200081E
:10106000000000208C000020F91000084901000851
:101070001F49204A002301E041F8043B9142FBD381
:10108000FFF770FFFEE7FEE7FEE7FEE7FEE7FEE79D
:10109000FEE7FEE7FEE7FEE7FEE7FEE7FEE7FEE728
:1010A000FEE7FEE7FEE7FEE7FEE7FEE7FEE7FEE718
:1010B000FEE7FEE7FEE7FEE7FEE7FEE7FEE7FEE708
:1010C000FEE7FEE7FEE7FEE7FEE7FEE7FEE7FEE7F8
:1010D000FEE7FEE7FEE7FEE7FEE7FEE7FEE7FEE7E8
:1010E000FEE7FEE7FEE7FEE7FEE7FEE7FEE7FEE7D8
:1010F0008C000020C002002030B43C4B3C491868F2
:1011000082B040F0010018605D68002029405960FD
:1011100019684FF41F0421F0847121F480311960A3
:1011200019681A4621F480211960596821F4FE01DA
:1011300059609C6000900190196841F480311960F9
:1011400003E0009BB3F5A06F09D0136803F40033EC
:101150000193009B01330093019B002BF1D0234BA3
:101160001B6813F4003318BF01230193019B012B6B
:1011700006D0204B4FF000629A6002B030BC70473E
:101180001D4A1A4B1068194640F010001060106894
:1011900020F003001060106840F0020010605A68F0
:1011A0005A605A685A605A6842F480625A605A68B3
:1011B00022F47C125A605A6842F4E8125A601A68A3
:1011C00042F080721A600B68084A9B01FBD51146F9
:1011D000536823F003035360536843F002035360E2
:1011E0004B6803F00C03082BFAD1C2E70010024051
:1011F0000000FFF800ED00E00020024008B5074BBA
:10120000044613B10021AFF30080054B1868836AD0
:1012100003B19847204600F0ABFF00BF000000007C
:10122000102200080E4B70B51E460E4C0025E41A25
:10123000A410A54204D056F8253098470135F8E7A8
:1012400000F098FF084B094C1E46E41AA410002534
:10125000A54204D056F8253098470135F8E770BD0F
:1012600084000020840000208400002088000020EA
:1012700003460244934202D003F8011BFAE7704789
:101280000FB40A4B13B51C6824B1A36913B92046E7
:1012900000F086F805AB049AA1682046019300F09F
:1012A0008FF902B0BDE8104004B070478000002004
:1012B000C9B2034610F8012B1AB19142F9D1184670
:1012C000704700290CBF184600207047034611F8EC
:1012D000012B03F8012B002AF9D17047034613F8BC
:1012E000012B002AFBD1181A01387047F0B503789A
:1012F00063B90B78002B18BF0020F0BD15F8012F43
:1013000062B114F8017F30469742F7D00346461C7D
:10131000007810B14D1E5C1EF0E7F0BD1846F0BD20
:10132000014900F0A9B800BFAD1E000810B5044681
:10133000002303604360836081814366C28103614F
:1013400043618361194608225C30FFF791FF054B2A
:1013500024626362044BA362044BE362044B236385
:1013600010BD00BF511B0008731B0008AB1B000819
:10137000CF1B000870B568234D1E5D430E4605F176
:10138000740100F097F8044640B1002180E8420063
:101390000C30A06005F16802FFF76AFF204670BDBF
:1013A000836910B5044633BB8364C3640365124B81
:1013B000124A1B688262984204BF0123836100F0D5
:1013C0001FF86060204600F01BF8A060204600F087
:1013D00017F80022E06004216068FFF7A7FF0122F0
:1013E0000921A068FFF7A2FF02221221E068FFF79F
:1013F0009DFF0123A36110BD1022000821130008E6
:10140000F8B51C4B07461E68B36913B93046FFF7A1
:10141000C7FF4836B4687368013B04D4B4F90C5074
:101420007DB16834F8E733680BB13668F2E7042120
:101430003846FFF79FFF30600028F6D10C233B6051
:10144000F8BD4FF6FF73E3810123A3816566256034
:10145000A560656025616561A5610822294604F1E2
:101460005C00FFF705FF6563A563A564E56420469E
:10147000F8BD00BF102200082DE9F84380468946D8
:1014800000F14804002694B1A5686768013F0CD4B8
:10149000AB89012B07D9B5F90E30013303D02946AA
:1014A0004046C84706436835F0E72468EBE7304616
:1014B000BDE8F88370B5CD1C25F0030508350C2D6B
:1014C00038BF0C25002D064601DBA94202D90C23AA
:1014D000336046E000F094FD234B1C681A46214619
:1014E000A1B10B685B1B0ED40B2B03D90B60CC187E
:1014F000CD501EE08C420BBF63684B681360636085
:1015000018BF0C4615E00C464968E9E7174C2368FC
:101510001BB9304600F00CFB20602946304600F035
:1015200007FB431C18D0C41C24F00304A0420DD1B7
:101530002560304600F065FD04F10B00231D20F00E
:101540000700C31A0ED05A42E25070BD211A30462D
:1015500000F0EEFA0130EBD10C233360304600F09E
:1015600050FD002070BD00BFB0000020AC00002086
:10157000936810B4013B002B936008DA9469A3428E
:1015800002DBCBB20A2B02D110BC00F025BB1368E2
:10159000581C10601970C8B210BC7047F8B50646E8
:1015A0000F461446D518AC4208D03A4614F8011B31
:1015B0003046FFF7DDFF431CF5D100E00020F8BD09
:1015C0002DE9F04F9DB00C4617460393064618B11F
:1015D00083690BB9FFF7E4FE7F4B9C4201D174682D
:1015E00008E07E4B9C4201D1B46803E07C4B9C42F6
:1015F00008BFF468A38918070CD5236953B10023E9
:10160000099320238DF8293030238DF82A30DFF814
:10161000D4B144E02146304600F044FB0028EED02F
:101620004FF0FF30D5E0039A111D12680391002A94
:1016300080F28C80524243F002000792049098F8A6
:1016400000302E2B00F08480032298F800106548AB
:1016500000F0C8FC48B14023CBEB000003FA00F0D7
:10166000049B08F101081843049098F80010062222
:101670005D4808F101078DF8281000F0B3FC002840
:1016800000F09580594B002B40F08880039B073376
:1016900023F0070308330393099B53440993B84687
:1016A000454615F8013B1BB9B8EB07090FD003E01D
:1016B000252BF9D0A846F3E74B463A46214630465B
:1016C000FFF76CFF01307FD0099B4B44099398F8DA
:1016D0000030002B78D000234FF0FF3204930793A3
:1016E000059206938DF853301A9301270522297825
:1016F0003F4800F077FC05F10108049B38B13C4AF3
:101700004546801A07FA00F018430490EEE7D90620
:1017100044BF20228DF853201A0744BF2B228DF896
:1017200053202A782A2A3FF47EAF079A00210A2004
:10173000A84698F800300135303B092B03D800FB50
:1017400002320121F4E700293FF479AF079276E7EE
:1017500098F801302A2B0BD1039B08F102081A1DBF
:101760001B680392002BB8BF4FF0FF3305936BE764
:1017700000231946059308F101000A25804698F8D0
:1017800000200130303A092A03D805FB012101234A
:10179000F4E7002B3FF458AF059155E703AB0093F6
:1017A0002246144B04A93046AFF3008007E003AB98
:1017B000009322460F4B04A9304600F093F8B0F195
:1017C000FF3F82467FF468AFA3895B063FF528AFF1
:1017D00009981DB0BDE8F08F1422000834220008DB
:1017E000542200087A2200087E220008000000002F
:1017F000742200089D1500082DE9F04791461F4608
:101800000A698B6806469342B8BF1346C9F8003090
:1018100091F843200C46DDF8208012B10133C9F85D
:1018200000302368990642BFD9F800300233C9F866
:101830000030256815F0060510D104F1190A07E0FB
:101840000123524639463046C04701301AD001358F
:10185000E368D9F800209B1A9D42F1DB94F84330ED
:101860002268003318BF012392060FD5E1183020FB
:1018700081F843005A1C94F845102244023382F840
:10188000431003E04FF0FF30BDE8F08704F143025E
:1018900039463046C0470130F4D02268D9F80050AC
:1018A000E36802F00602042A08BF5D1B2269A368F0
:1018B0000CBF25EAE57500259342C4BF9B1AED18BD
:1018C0004FF000091A344D4509D00123224639460C
:1018D0003046C0470130D5D009F10109F3E70020B7
:1018E000BDE8F0872DE9F04317460A7E85B06E2AE1
:1018F000984606460C460C9B01F1430E00F0AE8064
:1019000011D8632A22D009D8002A00F0BB80582AB7
:1019100040F0CA8081F84520834955E0642A1ED0F2
:10192000692A1CD0C0E0732A00F0B08009D86F2A61
:101930002ED0702A40F0B8800A6842F020020A6077
:101940003EE0752A24D0782A3AD0ADE01A6801F139
:101950004205111D1960136884F84230A8E021681F
:101960001A6811F0800F02D0111D196008E011F003
:10197000400F02F10401196002D0B2F9003000E01A
:101980001368002B3CDA2D225B4284F8432037E0B9
:1019900021681A6811F0800F02D0111D196007E04C
:1019A00011F0400F02F10401196001D0138800E02A
:1019B0001368227E5C496F2A14BF0A2208221BE0AA
:1019C00078225A4984F845202268186812F0800F5E
:1019D00000F104051D6003D1550601D5038800E020
:1019E0000368D00744BF42F0200222601BB922687E
:1019F00022F0200222601022002084F8430001E03F
:101A000049490A226568002DA56008DB206820F09E
:101A1000040020602BB9002D7DD175460CE0002B11
:101A200079D07546B3FBF2F002FB1033CB5C05F8BE
:101A3000013D03460028F5D1082A0BD12368DA07B7
:101A400008D5236962689A42DEBF302305F8013C5D
:101A500005F1FF35C5EB0E0323612EE008681A6817
:101A600010F0800F496903D0101D1860136808E05A
:101A700010F0400F02F104001860136801D01980C3
:101A800000E0196000232361754616E01A68111DF5
:101A90001960156800216268284600F0A3FA08B1B1
:101AA000401B6060636804E004F1420584F8422052
:101AB00001232361002384F84330CDF800803B46A6
:101AC00003AA21463046FFF797FE013002D14FF0BE
:101AD000FF3026E023692A4639463046C0470130A8
:101AE000F5D023689B0710D5002504F1190907E0FC
:101AF00001234A4639463046C0470130E7D0013518
:101B0000E368039A9B1A9D42F2DBE068039B9842CC
:101B1000B8BF184605E00B7804F1420584F842305E
:101B20008AE705B0BDE8F083852200089622000808
:101B300038B5064C002305460846236000F00AFB32
:101B4000431C02D1236803B12B6038BDBC020020C6
:101B500010B50C46B1F90E1000F0A0FA0028ABBF8A
:101B6000636DA3891B1823F48053ACBF6365A38105
:101B700010BD2DE9F0411F468B890546DB050C465B
:101B8000164605D502230022B1F90E1000F0B8F96F
:101B9000A389324623F48053A381B4F90E103B4647
:101BA0002846BDE8F04100F06BB810B50C46B1F91D
:101BB0000E1000F0A5F9431CA38915BF606523F43E
:101BC000805343F48053A38118BFA38110BDB1F9A2
:101BD0000E1000F0D5B80000F8B50F4614460646C2
:101BE00018B183690BB9FFF7DBFB224B9C4201D193
:101BF000746808E0204B9C4201D1B46803E01F4B9D
:101C00009C4208BFF468A369A360A3891A0709D599
:101C100023693BB123682069FDB2181A63699842B1
:101C20000FDB08E02146304600F03CF80028F1D0F8
:101C30004FF0FF30F8BD2146304600F037F900285C
:101C4000F6D1A368013BA36023685A1C22601F7071
:101C50006269431C934204D0A389DB0707D50A2D90
:101C600005D12146304600F021F90028E0D1284670
:101C7000F8BD00BF142200083422000854220008D6
:101C800038B5074C054608461146002222601A4620
:101C9000FEF70EFB431C02D1236803B12B6038BD55
:101CA000BC020020324B70B51D6806460C4625B1BB
:101CB000AB6913B92846FFF773FB2E4B9C4201D149
:101CC0006C6808E02C4B9C4201D1AC6803E02B4BC4
:101CD0009C4208BFEC68B4F90C309AB215071DD4C9
:101CE000D00602D4092232603AE0510712D5616B66
:101CF00041B104F14403994202D0304600F082F928
:101D000000236363A38923F02403A381002363607A
:101D100023692360A38943F00803A38123694BB996
:101D2000A38903F42073B3F5007F03D02146304626
:101D300000F01CF9A28912F0010305D00023A36072
:101D400063695B42A36103E0920758BF6369A360C4
:101D500023695BB9B4F90C3003F0800080B230B174
:101D600043F04003A3814FF0FF3070BD002070BDF1
:101D700080000020142200083422000854220008A9
:101D800038B5064C002305460846236000F0BAF932
:101D9000431C02D1236803B12B6038BDBC02002074
:101DA0008A892DE9F041054610070C4659D44B6845
:101DB000002B02DC0B6C002B17DDE66AAEB102F4DF
:101DC0008052002392B22F682B600AB1606D15E03B
:101DD000216A01232846B047411C0FD12B686BB103
:101DE0001D2B01D0162B03D12F600020BDE8F08100
:101DF000A38943F04003A381BDE8F081A3895A077A
:101E000005D56368C01A636B0BB1236CC01A00233D
:101E10000246E66A216A2846B047431CA38906D1D8
:101E200029681D2939D8204ACA40D60735D500224D
:101E300062602269D904226004D5421C01D12B685A
:101E400003B96065616B2F600029CED004F14403B3
:101E5000994202D0284600F0D5F800206063BDE822
:101E6000F0810F69002FC0D093070E680CBF4B693B
:101E70000023C7EB06080F608B6002E00744C0EB4D
:101E80000808B8F1000FB0DD43463A46216A2846FB
:101E9000A66AB0470028F1DCA38943F04003A38180
:101EA0004FF0FF30BDE8F0810100402038B50B69EC
:101EB00005460C46DBB118B183690BB9FFF770FA20
:101EC0000C4B9C4201D16C6808E00B4B9C4201D149
:101ED000AC6803E0094B9C4208BFEC68B4F90C30D5
:101EE0002BB121462846BDE83840FFF759BF0020F6
:101EF00038BD00BF14220008342200085422000814
:101F000038B5074C054608461146002222601A469D
:101F100000F010F9431C02D1236803B12B6038BDD7
:101F2000BC02002070B50E46B1F90E1090B0002929
:101F300014461D4606DA00232B60B3891A060ED517
:101F400040230EE001AA00F0BBF80028F3DB029A60
:101F500002F47042A2F500535A425A412A604FF4EB
:101F600080630020236010B070BD00008B8973B5C2
:101F70009E0705460C4610D401AB6A46FFF7D2FF18
:101F8000009906462846FFF795FA68B9B4F90C306F
:101F90009A0522D443F00203A38104F1470323608E
:101FA00023610123636118E00D4BAB62A3892060BC
:101FB00043F08003A381009B20616361019B4BB1CF
:101FC000B4F90E10284600F08DF818B1A38943F03B
:101FD0000103A381A0893043A08102B070BD00BF7E
:101FE0002113000810B5C9B202449042034605D03F
:101FF0001C7801308C42F8D1184610BD002010BD6D
:102000007047704738B50546002944D051F8043C64
:102010000C1F002BB8BFE418FFF7F2FF1E4A13682D
:10202000114613B96360146030E0A3420DD92268F1
:10203000A018834201BF18685B68121822606360B1
:102040000C6023E0A24203D813465A68002AF9D153
:1020500018681918A1420BD121680144581882420E
:10206000196013D110685268014419605A600DE07C
:1020700002D90C232B6009E021686018824201BF5D
:10208000106852680918216062605C602846BDE8EB
:102090003840FFF7B6BF38BDB000002038B5074C58
:1020A000054608461146002222601A4600F04AF80A
:1020B000431C02D1236803B12B6038BDBC02002051
:1020C00038B5074C0023054608461146236000F04A
:1020D00021F8431C02D1236803B12B6038BD00BF37
:1020E000BC02002038B5064C002305460846236094
:1020F00000F018F8431C02D1236803B12B6038BDEF
:10210000BC020020024B58221A604FF0FF3070478B
:10211000BC020020024B58221A604FF0FF3070477B
:10212000BC020020024B58221A600020704700BFFA
:10213000BC020020024B58221A604FF0FF3070475B
:10214000BC020020024B58221A604FF0FF3070474B
:10215000BC020020044B0246196809B90349196002
:10216000186802441A607047B4000020C0020020C2
:10217000FEE70000F8B500BFF8BC08BC9E467047FB
:10218000F8B500BFF8BC08BC9E4670476374726C1B
:10219000000000006F70656E0000000070616972E1
:1021A00000000000524541445F52585F4D41535476
:1021B00045523A2000000000524541445F464C41E0
:1021C00053483A200000000070696E672C25732C7C
:1021D00025732C747275652C0A0000006C6F636B9C
:1021E0002C25732C25732C6C6F636B2C0A0000005C
:1021F0006C6F636B2C25732C25732C6F70656E2CA4
:102200000A00000073796E630000000043000000C4
:10221000200000200000000000000000000000007E
:1022200000000000000000000000000000000000AE
:10223000000000000000000000000000000000009E
:10224000000000000000000000000000000000008E
:10225000000000000000000000000000000000007E
:10226000000000000000000000000000000000006E
:1022700000000000232D302B2000686C4C006566A8
:1022800067454647003031323334353637383941C7
:1022900042434445460030313233343536373839DD
:0C22A000616263646566000000000000DD
:0822AC009CDEFF7F0100000031
:1022B40001000000020406080000000001020304FB
:1022C40001020304060708090101010101000000DD
:1022D40000000000142200083422000854220008E0
:1022E40000000000000000000000000000000000EA
:1022F4000C220008000000000000000000000000A4
:1023040000000000000000000000000000000000C9
:1023140000000000000000000000000000000000B9
:1023240000000000000000000000000000000000A9
:0C2334002000002011010008ED0000084E
:0400000508000000EF
:00000001FF
