:020000040800F2
:10000000005000204D1900089319000895190008A8
:1000100097190008991900089B19000800000000B2
:100020000000000000000000000000009D19000812
:100030009F19000800000000A1190008DD01000858
:10004000A7190008A9190008AB190008AD19000884
:10005000AF190008B1190008B3190008B519000854
:10006000B7190008B9190008BB190008BD19000824
:10007000BF190008C1190008C3190008C5190008F4
:10008000C7190008C9190008CB190008CD190008C4
:10009000CF190008D1190008D3190008D519000894
:1000A000D7190008D9190008DB190008DD19000864
:1000B00011110008E1190008E3190008E51900080A
:1000C000E7190008E9190008EB190008ED19000804
:1000D000EF19000805050008F3190008B504000829
:1000E000F7190008F9190008FB19000810B5054CAC
:1000F000237833B9044B13B10448AFF300800123D4
:10010000237010BD8C00002000000000202C00088F
:10011000084B10B51BB108490848AFF300800848E8
:10012000036803B910BD074B002BFBD0BDE810409E
:10013000184700BF0000000090000020202C00089D
:100140008C00002000000000154B002B08BF134B53
:100150009D46A3F5803A00218B460F461348144A6A
:10016000121A01F043FD0F4B002B00D098470E4BA5
:10017000002B00D098470020002104000D000D48FE
:10018000002802D00C48AFF3008001F009FD2000E8
:10019000290001F061FB01F0EFFC00BF0000080046
:1001A0000050002000000000000000008C00002033
:1001B000C0020020000000000000000080B400AF7A
:1001C000054B6FF07F425A60034B07221A6000BF55
:1001D000BD4680BC704700BF10E000E080B400AFB7
:1001E000044B1B680133034A136000BFBD4680BC4B
:1001F000704700BF0000002080B400AF044B1B68B4
:100200001A06044B9B68D31A1846BD4680BC70473B
:100210000000002010E000E080B584B000AF7860FE
:10022000FFF7EAFF01467A681346DB001344DB0060
:100230000B44FB6000BFFFF7DFFF0246FB689B1A21
:10024000002BF8DC00BF1037BD4680BD80B582B002
:1002500000AF786006E04FF47A70FFF7DDFF7B684F
:10026000013B7B607B68002BF5D100BF0837BD46A2
:1002700080BD00BF80B483B000AF0346FB71084966
:1002800097F907305B09FA7902F01F02012000FAA2
:1002900002F241F8232000BF0C37BD4680BC7047F6
:1002A00000E100E080B588B000AF0346FB8001218B
:1002B00044F2040000F06EFC4FF496433B610023CF
:1002C000BB820023FB8200233B830023BB830C23E0
:1002D0007B8307F110031946154800F083FD0122C6
:1002E00040F22551124800F057FE2520FFF7C2FFCB
:1002F00001210F4800F030FE4FF40073BB81012351
:10030000BB731823FB7307F10C031946094800F06F
:100310009FFA4FF48063BB812823FB7307F10C0322
:100320001946044800F094FA00BF2037BD4680BD4E
:10033000003801400008014080B487B000AFF86089
:10034000B9607A607B687B6111E000BF0C4B1B8851
:100350009BB203F08003002BF8D00949BB685A1CFC
:10036000BA601B789BB28B807B69013B7B617B69A8
:10037000002BEAD17B6818461C37BD4680BC70470D
:100380000038014080B588B000AF0346FB800121F2
:10039000082000F0FFFB01214FF4802000F018FC42
:1003A0004FF48063BB811823FB730323BB7307F1F6
:1003B0000C031946184800F04BFA4FF40063BB8158
:1003C0000423FB7307F10C031946134800F040FAAD
:1003D000FB883B610023BB820023FB8200233B831D
:1003E0000023BB830C237B8307F1100319460B48C2
:1003F00000F0F8FC012240F22551084800F0CCFD45
:100400002720FFF737FF0121044800F0A5FD00BFBA
:100410002037BD4680BD00BF000C014000480040B1
:1004200080B582B000AF78600B46FB707B6800221D
:100430009A80FB789BB21946786800F0F5FD00BF02
:100440008021786800F012FE0346002BF8D000BF30
:100450000837BD4680BD00BF80B582B000AF786070
:10046000396008E03B681B7819467868FFF7D8FFC9
:100470003B6801333B603B681B78002BF2D100BF27
:100480000837BD4680BD00BF80B584B000AF78603E
:1004900000BF2021786800F0E9FD0346002BF8D06A
:1004A000786800F0D3FD0346FB73FB7B18461037DA
:1004B000BD4680BD80B582B000AF0F48FFF7E4FFB6
:1004C0000346FB710D4B1B7819460D4AFB795354BB
:1004D0000A4B1B780133DAB2084B1A70074B1B78B2
:1004E000013B074AD35C0A2B02D1044B00221A704D
:1004F00000BF0837BD4680BD00480040A80000206E
:10050000B800002080B582B000AF0F48FFF7BCFFF5
:100510000346FB710D4B1B7819460D4AFB7953546A
:100520000A4B1B780133DAB2084B1A70074B1B7861
:10053000013B074AD35C0A2B02D1044B00221A70FC
:1005400000BF0837BD4680BD00380140A90000202B
:10055000B801002080B584B000AF7860786801F001
:100560007BFB0346BB730023FB7307E0FB7B7A68CE
:10057000134400221A70FB7B0133FB73FA7BBB7BB5
:100580009A42F3D300BF1037BD4680BD80B500AF9F
:1005900000F050F900BF80BD80B500AF00F038F921
:1005A00000BF80BD80B483B000AF786000BF164B41
:1005B000DB6803F00103002BF9D1134A124B1B69CE
:1005C00043F002031361104A7B6853610E4A0E4BDD
:1005D0001B6943F04003136100BF0B4BDB6803F062
:1005E0000103002BF9D1084A074B1B6923F00103D3
:1005F0001361054A044B1B6923F00203136100BF1A
:100600000C37BD4680BC70470020024080B485B0E6
:1006100000AF78607B68FB60FB681B881846143766
:10062000BD4680BC704700BF80B584B000AF786025
:100630003960FFF7B1FF234A224B1B6943F00103E6
:1006400013610023BB60386801F006FB0346DAB291
:100650001D4B1A700023FB6016E000BF194BDB68CE
:1006600003F00103002BF9D1FB683A6813441B78AF
:10067000BB60FB685B001A467B681344BA6892B2A1
:100680001A80FB680133FB600F4B1B781A46FB682E
:100690009A42E2DC00BF0B4BDB6803F00103002B46
:1006A000F9D1084A074B1B6923F001031361054A7E
:1006B000044B1B6943F08003136100BF1037BD4634
:1006C00080BD00BF00200240B802002090B587B076
:1006D00000AFF860B9607A607B683B61F868FFF74B
:1006E00039FF00237B6110E07B69FA68D4187B69CD
:1006F0005B001A46BB6813441846FFF787FF0346A2
:10070000DBB223707B6901337B617A693B699A4272
:10071000EAD300BF1C37BD4690BD00BF80B582B094
:1007200000AF78603960FFF737FF3868FFF73AFFAE
:1007300079683868FFF778FF6420FFF787FDFFF7D7
:1007400025FF00BF0837BD4680BD00BF80B487B01D
:1007500000AF786000237B6100233B610F23FB60C7
:100760007B68DB78002B3AD0274BDB68DB4303F454
:10077000E0631B0A7B617B69C3F104033B61FA6898
:100780007B6922FA03F3FB607B685B781A463B695E
:1007900002FA03F37B617B689B781A46FB6813407F
:1007A0007A6913437B617B691B017B61174A7B6814
:1007B0001B787969C9B213440A4683F80023134AA7
:1007C0007B681B785B09DBB218467B681B7803F0FB
:1007D0001F03012101FA03F342F820300FE00B4917
:1007E0007B681B785B09DBB218467B681B7803F0DB
:1007F0001F0301229A4000F1200341F8232000BF8B
:100800001C37BD4680BC704700ED00E000E100E011
:1008100080B400AF044B054A5A60034B044A5A6047
:1008200000BFBD4680BC70470020024023016745E1
:10083000AB89EFCD80B400AF044A044B1B6943F091
:100840008003136100BFBD4680BC7047002002409A
:1008500080B489B000AF786039600023FB61002369
:100860003B610023BB610023FB6000237B6100230D
:10087000BB603B68DB7803F00F03FB613B68DB7810
:1008800003F01003002B05D03B689B781A46FB69E8
:100890001343FB613B681B88DBB2002B44D07B68B1
:1008A0001B687B610023BB6138E00122BB6902FA4F
:1008B00003F3FB603B681B881A46FB6813403B61EF
:1008C0003A69FB689A4226D1BB699B00FB600F2204
:1008D000FB6802FA03F3BB60BB68DB437A69134031
:1008E0007B61FA69FB6802FA03F37A6913437B615F
:1008F0003B68DB78282B05D10122BB699A407B68D5
:100900005A6108E03B68DB78482B04D10122BB69BF
:100910009A407B681A61BB690133BB61BB69072BD5
:10092000C3D97B687A691A603B681B88FF2B46D95C
:100930007B685B687B610023BB613AE0BB6908337D
:10094000012202FA03F3FB603B681B881A46FB682E
:1009500013403B613A69FB689A4227D1BB699B000F
:10096000FB600F22FB6802FA03F3BB60BB68DB434A
:100970007A6913407B61FA69FB6802FA03F37A69CA
:1009800013437B613B68DB78282B05D1BB690833B7
:1009900001229A407B685A613B68DB78482B05D17D
:1009A000BB69083301229A407B681A61BB69013335
:1009B000BB61BB69072BC1D97B687A695A6000BFEC
:1009C0002437BD4680BC704780B485B000AF7860E6
:1009D0000B467B800023FB737B689A687B881340FF
:1009E000002B02D00123FB7301E00023FB73FB7B90
:1009F00018461437BD4680BC704700BF80B483B032
:100A000000AF78600B467B807A887B681A6100BFF4
:100A10000C37BD4680BC704780B483B000AF7860AF
:100A20000B467B807A887B685A6100BF0C37BD46D5
:100A300080BC704780B487B000AF786000237B61D2
:100A400000233B610023FB600023BB604C4B5B68D1
:100A500003F00C037B617B69042B07D0082B09D0C2
:100A6000002B33D17B68474A1A6033E07B68454AE4
:100A70001A602FE0424B5B6803F470133B61404BFC
:100A80005B6803F48033FB603B699B0C02333B6182
:100A9000FB68002B06D13B693B4A02FB03F27B68F3
:100AA0001A6017E0364B5B6803F40033002B06D066
:100AB0003B69354A02FB03F27B681A600AE03B6936
:100AC000304A02FB03F27B681A6003E07B682D4A20
:100AD0001A6000BF2A4B5B6803F0F0037B617B69FF
:100AE0001B097B61294A7B6913441B78DBB2BB601D
:100AF0007B681A68BB68DA407B685A60204B5B6889
:100B000003F4E0637B617B691B0A7B611F4A7B699D
:100B100013441B78DBB2BB607B685A68BB68DA4061
:100B20007B689A60164B5B6803F460537B617B695A
:100B3000DB0A7B61154A7B6913441B78DBB2BB601F
:100B40007B685A68BB68DA407B68DA600C4B5B688C
:100B500003F440437B617B699B0B7B610C4A7B699F
:100B600013441B78DBB2BB607B68DA68BB68B2FBFE
:100B7000F3F27B681A6100BF1C37BD4680BC70472A
:100B80000010024000127A0000093D00040000201D
:100B90001400002080B483B000AF78600B46FB7077
:100BA000FB78002B06D00949084B9A697B681343F0
:100BB0008B6106E00549054B9A697B68DB4313406E
:100BC0008B6100BF0C37BD4680BC704700100240EF
:100BD00080B483B000AF78600B46FB70FB78002BCD
:100BE00006D00949084BDA697B681343CB6106E0FC
:100BF0000549054BDA697B68DB431340CB6100BFD5
:100C00000C37BD4680BC70470010024080B485B0F0
:100C100000AF786039600023FB817B681B88FB8113
:100C20007B682E4A934213D07B682D4A93420FD0A3
:100C30007B68B3F1804F0BD07B682A4A934207D080
:100C40007B68294A934203D07B68284A934208D1A3
:100C5000FB8923F07003FB813B685A88FB891343AF
:100C6000FB817B68224A93420CD07B68214A9342E5
:100C700008D0FB8923F44073FB813B68DA88FB8949
:100C80001343FB817B68FA891A803B689A887B68EA
:100C90009A853B681A887B681A857B680F4A93425D
:100CA0000FD07B680E4A93420BD07B68124A934266
:100CB00007D07B68114A934203D07B68104A934265
:100CC00004D13B681B7A9AB27B681A867B68012242
:100CD0009A8200BF1437BD4680BC7047002C01408B
:100CE000003401400004004000080040000C0040B7
:100CF000001000400014004000400140004401404A
:100D00000048014080B483B000AF78600B46FB70B0
:100D1000FB78002B08D07B681B889BB243F0010353
:100D20009AB27B681A8007E07B681B889BB223F02D
:100D300001039AB27B681A8000BF0C37BD4680BCA5
:100D4000704700BF80B483B000AF78600B467B80F3
:100D500013467B707B78002B08D07B689B899AB206
:100D60007B8813439AB27B689A8109E07B689B89F0
:100D70009AB27B88DB439BB213409AB27B689A811C
:100D800000BF0C37BD4680BC704700BF80B485B043
:100D900000AF78600B467B800023FB737B681B8A67
:100DA0009AB27B8813409BB2002B02D00123FB73C5
:100DB00001E00023FB73FB7B18461437BD4680BC63
:100DC000704700BF80B483B000AF78600B467B8073
:100DD0007B88DB439AB27B681A8200BF0C37BD4622
:100DE00080BC704780B58CB000AF7860396000235C
:100DF000FB620023BB6200237B6200233B62002373
:100E0000FB617B68FB617B681B8A9BB2FB62FA6AB1
:100E10004CF6FF731340FB623B68DB881A46FB6AA3
:100E20001343FB62FB6A9AB27B681A827B689B89D8
:100E30009BB2FB62FA6A4EF6F3131340FB623B6807
:100E40009A883B681B8913439AB23B685B891343BA
:100E50009BB21A46FB6A1343FB62FB6A9AB27B6839
:100E60009A817B689B8A9BB2FB62FA6A4FF6FF43CA
:100E70001340FB623B689B891A46FB6A1343FB6283
:100E8000FB6A9AB27B689A8207F108031846FFF75B
:100E9000D1FDFB692E4A934202D17B69BB6201E01E
:100EA0003B69BB627B689B899BB21BB2002B0CDA4F
:100EB000BA6A13469B0013449A001A443B681B68A5
:100EC0005B00B2FBF3F37B620BE0BA6A13469B0054
:100ED00013449A001A443B681B689B00B2FBF3F36F
:100EE0007B627B6A1B4AA2FB03235B091B01FB623B
:100EF000FB6A1B09642202FB03F37A6AD31A3B6282
:100F00007B689B899BB21BB2002B0CDA3B6ADB002F
:100F10003233104AA2FB03235B0903F00703FA6A8A
:100F20001343FB620BE03B6A1B013233094AA2FB0D
:100F300003235B0903F00F03FA6A1343FB62FB6AA6
:100F40009AB27B681A8100BF3037BD4680BD00BFB2
:100F5000003801401F85EB5180B483B000AF78604A
:100F60000B46FB70FB78002B08D07B689B899BB2FB
:100F700043F400539AB27B689A8107E07B689B89AF
:100F80009BB223F400539AB27B689A8100BF0C375E
:100F9000BD4680BC704700BF80B487B000AF7860AA
:100FA0000B467B8013467B7000233B610023FB6074
:100FB0000023BB6000237B617B687B617B88DBB2A5
:100FC0005B09DBB23B617B8803F01F03FB600122FE
:100FD000FB6802FA03F3BB603B69012B03D17B6919
:100FE0000C337B6109E03B69022B03D17B69103331
:100FF0007B6102E07B6914337B617B78002B06D038
:101000007B697A691168BA680A431A6006E07B69ED
:101010007A691168BA68D2430A401A6000BF1C3767
:10102000BD4680BC704700BF80B483B000AF78601D
:101030000B467B807B88C3F308039AB27B689A8057
:1010400000BF0C37BD4680BC704700BF80B483B082
:1010500000AF78607B689B889BB2C3F308039BB2A8
:1010600018460C37BD4680BC704700BF80B485B0C1
:1010700000AF78600B467B800023FB737B681B8886
:101080009AB27B8813409BB2002B02D00123FB73E2
:1010900001E00023FB73FB7B18461437BD4680BC80
:1010A000704700BF80B584B000AF01210120FFF779
:1010B0008FFD41F61F43BB8042F20F733B8100233B
:1010C000FB803B1D19464FF08040FFF79FFD01213B
:1010D0004FF08040FFF776FE012201214FF0804063
:1010E000FFF730FE01214FF08040FFF70BFE1C237D
:1010F0003B700123FB7000237B700023BB703B46D9
:101100001846FFF723FB00BF1037BD4680BD00BF68
:1011100080B500AF01214FF08040FFF737FE034656
:10112000002B2ED0184B1B78DBB20133DAB2164BF2
:101130001A70164B00221A70134B1B78DBB2012B6E
:1011400002D1134B00221A700F4B1B78DBB2032B1A
:1011500002D1104B00221A700B4B1B78DBB2052B0F
:1011600002D10D4B00221A70074B1B78DBB20A2B01
:1011700002D9054B00221A7001214FF08040FFF781
:1011800021FE00BF80BD00BFAB0000201B0000207F
:1011900018000020190000201A00002080B582B03D
:1011A00000AF01211820FFF7F5FC1023FB714FF46D
:1011B0000053BB800123BB713B1D19461648FFF746
:1011C00047FB1023FB714FF4E043BB800123BB714D
:1011D0003B1D19461148FFF73BFB4823FB714FF4B9
:1011E0004073BB800123BB713B1D19460B48FFF7C1
:1011F0002FFB01210420FFF7CDFC4823FB710723BF
:10120000BB800123BB713B1D19460548FFF720FB3E
:1012100000BF0837BD4680BD00100140000C0140F2
:101220000008014080B586B000AFF8600B467A60D8
:101230007B817B891946F868FFF7C6FB0346012BC3
:1012400002D10123FB750FE07B891946F868FFF78F
:10125000BBFB0346002B07D1FB7D002B04D00023F2
:10126000FB757B6801221A7000BF1837BD4680BD30
:1012700080B586B000AFF8600B467A607B817B89D1
:101280001946F868FFF7A0FB0346012B05D101239F
:10129000FB757B6801221A700FE07B891946F8689C
:1012A000FFF792FB0346002B07D1FB7D002B04D0F8
:1012B0000023FB757B6800221A7000BF1837BD46FB
:1012C00080BD00BF80B58AB000AFF860B9607A60B9
:1012D0003B60FB68002B56D0BB68002B53D07B686B
:1012E000002B50D03B68002B4DD03B6B002B4AD0DD
:1012F000FB687B627B6A3B622C21386A00F096FCBB
:1013000078627B6A002B06D07B6A00221A70396AE9
:10131000B86800F099FC7B6A0133FB612C21F86905
:1013200000F084FC78627B6A002B06D07B6A002286
:101330001A70F969786800F087FC7B6A0133BB6139
:101340002C21B86900F072FC78627B6A002B06D011
:101350007B6A00221A70B969386800F075FC7B6AF4
:1013600001337B612C21786900F060FC78627B6A34
:10137000002B06D07B6A00221A707969386B00F066
:1013800063FC012300E0002318462837BD4680BDDA
:1013900080B588B000AF7860294A01212948FFF75D
:1013A00041FF44E04FF400512748FFF735FB274940
:1013B000786800F059FC0346002B16D024492548D4
:1013C000FFF74AF879682348FFF746F872B62249D2
:1013D0007868FFF7A3F962B6786800F03DFC034631
:1013E0001A460021786800F001FC07F10803162274
:1013F00019491846FFF76AF907F108031349184617
:1014000000F032FC0346002B11D014491148FFF7BD
:1014100023F807F1080319460E48FFF71DF84FF4AB
:1014200000510948FFF7EAFA054B00221A70044BF5
:101430001B78002BB6D100BF2037BD4680BD00BF52
:10144000AA0000200008014000100140082B0008FD
:10145000102B000800480040007C0008242B0008E6
:1014600090B593B002AF07F1280316220E49184633
:10147000FFF72CF907F1080407F1100207F120012A
:1014800007F128003B4600932346FFF71BFF07F1B7
:10149000080207F110031946044800F0AFFB00BF33
:1014A0004437BD4690BD00BF007C0008342B0008C7
:1014B00090B593B002AF4FF480511E48FFF7ACFADD
:1014C0004FF400511B48FFF7A7FA07F12803162233
:1014D00019491846FFF7FAF807F1080407F1100256
:1014E00007F1200107F128003B4600932346FFF750
:1014F000E9FE07F13F031A4602211048FFF7B8FE44
:1015000097F83F30002B08D007F1080207F11003CD
:1015100019460B4800F072FB07E007F1080207F1DB
:1015200010031946074800F069FB00BF4437BD4669
:1015300090BD00BF000C0140007C00080008014085
:10154000482B00085C2B000880B582B000AFBB1DA3
:101550001A4604214948FFF78BFE7B1D1A464FF4BB
:1015600080714748FFF784FEBB7983F00103DBB24B
:10157000002B7ED07B7983F00103DBB2002B78D087
:10158000404B00221A704FF480413D48FFF736FA75
:101590004FF480513A48FFF731FA4FF40051384880
:1015A000FFF73AFA3B1D1A464FF400713448FFF733
:1015B0005FFE06E03B1D1A464FF400713048FFF70E
:1015C00057FE3B79002BF5D14FF480512C48FFF7A3
:1015D00023FA4FF400512A48FFF71EFA11E02A4B74
:1015E0001B78DBB283F00103DBB2002B09D0254B63
:1015F0001B78DBB20133DAB2224B1A70224B012284
:101600001A70204B1B78DBB2092BE8D9FB1D1A4658
:1016100002211A48FFF72CFE02211848FFF7D4F9DF
:101620000346002B25D14FF400511548FFF7E6F98A
:101630004FF480511248FFF7EFF94FF48041104802
:10164000FFF7DCF97B1D1A464FF480710B48FFF75A
:101650000FFE7B7983F00103DBB2002B09D04FF43E
:1016600080510748FFF7D8F94FF400510448FFF7BD
:10167000D3F900BF0837BD4680BD00BF0008014058
:10168000000C01401C0000201B00002090B5A1B000
:1016900002AF78607B681B78002B00F0CA8007F1EE
:1016A0006003162265491846FFF710F807F120007D
:1016B00007F1300207F1500107F1100300930346D0
:1016C0007868FFF7FFFD07F1280407F1400207F1F2
:1016D000580107F1600007F1180300932346FFF754
:1016E000F1FD07F150035649184600F0BDFA0346D4
:1016F000002B00F09E8007F1300207F140031146F5
:10170000184600F0B1FA0346002B00F0928007F172
:10171000280207F120031146184600F0A5FA0346F7
:10172000002B00F0868007F110034649184600F0B0
:101730009BFA0346002B7CD0434B00221A704FF4D7
:1017400080414248FFF75AF94FF480513F48FFF774
:1017500055F94FF400513D48FFF75EF907F10D03CD
:101760001A464FF400713948FFF782FD07E007F190
:101770000D031A464FF400713448FFF779FD7B7B67
:10178000002BF4D14FF480513048FFF745F94FF466
:1017900000512E48FFF740F911E02D4B1B78DBB2CA
:1017A00083F00103DBB2002B09D0274B1B78DBB29F
:1017B0000133DAB2244B1A70254B01221A70224BE6
:1017C0001B78DBB2092BE8D907F10F031A46022177
:1017D0002048FFF74DFD02211E48FFF7F5F80346AC
:1017E000002B26D14FF400511848FFF707F94FF4AA
:1017F00080511648FFF710F94FF480411348FFF766
:10180000FDF807F10E031A464FF480711148FFF7F7
:101810002FFDBB7B83F00103DBB2002B09D04FF41B
:1018200080510A48FFF7F8F84FF400510748FFF7D6
:10183000F3F800BF7C37BD4690BD00BF007C0008B8
:10184000702B0008782B00081C000020000C0140C1
:101850001B0000200008014080B500AFFEF7AEFC81
:10186000FFF720FCFFF79AFC4FF49640FEF71AFDB5
:101870004FF49640FEF786FD4FF400512B48FFF7DA
:10188000BDF82B48FFF784FDFFF75EFE2949284885
:1018900000F0EAF90346002B07D0274B00221A700C
:1018A00080220021224800F0A1F9234B1B78DBB2F3
:1018B000012B0CD1214B1B78DBB283F00103DBB28F
:1018C000002B04D01D4B01221A70FFF7F1FD1A4BBB
:1018D0001B78DBB2032B16D1194B1B78DBB283F0DC
:1018E0000103DBB2002B0ED0154B01221A701049F8
:1018F0001448FEF7B1FD0E48FFF7C8FE8022002114
:101900000B4800F073F90C4B1B78DBB2052BB8D1F8
:101910000D4B1B78DBB283F00103DBB2002BB0D0A0
:10192000094B01221A70FFF79BFDAAE70010014046
:10193000B8010020802B0008AB0000201800002018
:1019400019000020004800401A0000200649074AFC
:10195000074B9A42BEBF51F8040B42F8040BF8E75C
:1019600004488047044800472C2C00080000002051
:101970008C000020051A0008490100081F49204A70
:10198000002301E041F8043B9142FBD3FFF764FFE1
:10199000FEE7FEE7FEE7FEE7FEE7FEE7FEE7FEE71F
:1019A000FEE7FEE7FEE7FEE7FEE7FEE7FEE7FEE70F
:1019B000FEE7FEE7FEE7FEE7FEE7FEE7FEE7FEE7FF
:1019C000FEE7FEE7FEE7FEE7FEE7FEE7FEE7FEE7EF
:1019D000FEE7FEE7FEE7FEE7FEE7FEE7FEE7FEE7DF
:1019E000FEE7FEE7FEE7FEE7FEE7FEE7FEE7FEE7CF
:1019F000FEE7FEE7FEE7FEE7FEE7FEE78C000020DD
:101A0000C002002080B500AF154A154B1B6843F09B
:101A1000010313601249124B5A68124B13404B607A
:101A20000F4A0F4B1B6823F0847323F48033136039
:101A30000B4A0B4B1B6823F480231360084A084BA6
:101A40005B6823F4FE035360054B4FF41F029A605A
:101A500000F00CF8044B4FF000629A6000BF80BDAC
:101A6000001002400000FFF800ED00E080B500AF7C
:101A700000F002F800BF80BD80B483B000AF002347
:101A80007B6000233B603A4A394B1B6843F4803348
:101A90001360374B1B6803F400333B607B680133F2
:101AA0007B603B68002B03D17B68B3F5A06FF0D15E
:101AB0002F4B1B6803F40033002B02D001233B6043
:101AC00001E000233B603B68012B4BD1294A294BA5
:101AD0001B6843F010031360264A264B1B6823F053
:101AE00003031360234A234B1B6843F00203136074
:101AF0001F4A1F4B5B6853601D4A1D4B5B68536058
:101B00001B4A1B4B5B6843F480635360184A184BB5
:101B10005B6823F47C135360154A154B5B6843F4F0
:101B2000E8135360124A124B1B6843F08073136032
:101B300000BF0F4B1B6803F00073002BF9D00C4A59
:101B40000B4B5B6823F003035360094A084B5B6847
:101B500043F00203536000BF054B5B6803F00C03C6
:101B6000082BF9D100BF0C37BD4680BC704700BFC1
:101B7000001002400020024008B5074B044613B194
:101B80000021AFF30080054B1868836A03B19847C2
:101B9000204600F0ABFF00BF00000000882B0008CB
:101BA0000E4B70B51E460E4C0025E41AA410A5423B
:101BB00004D056F8253098470135F8E700F098FF33
:101BC000084B094C1E46E41AA4100025A54204D077
:101BD00056F8253098470135F8E770BD840000209D
:101BE0008400002084000020880000200346024476
:101BF000934202D003F8011BFAE770470FB40A4B77
:101C000013B51C6824B1A36913B9204600F086F807
:101C100005AB049AA1682046019300F08FF902B049
:101C2000BDE8104004B0704780000020C9B20346F0
:101C300010F8012B1AB19142F9D1184670470029CA
:101C40000CBF184600207047034611F8012B03F81B
:101C5000012B002AF9D17047034613F8012B002A03
:101C6000FBD1181A01387047F0B5037863B90B78C7
:101C7000002B18BF0020F0BD15F8012F62B114F839
:101C8000017F30469742F7D00346461C007810B1DA
:101C90004D1E5C1EF0E7F0BD1846F0BD014900F096
:101CA000A9B800BF2928000810B504460023036026
:101CB0004360836081814366C281036143618361C4
:101CC000194608225C30FFF791FF054B24626362DE
:101CD000044BA362044BE362044B236310BD00BFBB
:101CE000CD240008EF240008272500084B25000814
:101CF00070B568234D1E5D430E4605F1740100F07A
:101D000097F8044640B1002180E842000C30A06002
:101D100005F16802FFF76AFF204670BD836910B5C0
:101D2000044633BB8364C3640365124B124A1B68C9
:101D30008262984204BF0123836100F01FF8606053
:101D4000204600F01BF8A060204600F017F80022A3
:101D5000E06004216068FFF7A7FF01220921A06865
:101D6000FFF7A2FF02221221E068FFF79DFF012387
:101D7000A36110BD882B00089D1C0008F8B51C4B02
:101D800007461E68B36913B93046FFF7C7FF4836E8
:101D9000B4687368013B04D4B4F90C507DB1683465
:101DA000F8E733680BB13668F2E704213846FFF7ED
:101DB0009FFF30600028F6D10C233B60F8BD4FF642
:101DC000FF73E3810123A38165662560A5606560DB
:101DD00025616561A5610822294604F15C00FFF7D1
:101DE00005FF6563A563A564E5642046F8BD00BFF3
:101DF000882B00082DE9F8438046894600F1480405
:101E0000002694B1A5686768013F0CD4AB89012B0B
:101E100007D9B5F90E30013303D029464046C847EB
:101E200006436835F0E72468EBE73046BDE8F88301
:101E300070B5CD1C25F0030508350C2D38BF0C25D9
:101E4000002D064601DBA94202D90C23336046E08F
:101E500000F094FD234B1C681A462146A1B10B6883
:101E60005B1B0ED40B2B03D90B60CC18CD501EE09E
:101E70008C420BBF63684B681360636018BF0C46ED
:101E800015E00C464968E9E7174C23681BB9304652
:101E900000F00CFB20602946304600F007FB431C95
:101EA00018D0C41C24F00304A0420DD12560304694
:101EB00000F065FD04F10B00231D20F00700C31A9C
:101EC0000ED05A42E25070BD211A304600F0EEFAB0
:101ED0000130EBD10C233360304600F050FD002080
:101EE00070BD00BFB0000020AC000020936810B4AB
:101EF000013B002B936008DA9469A34202DBCBB26A
:101F00000A2B02D110BC00F025BB1368581C1060CE
:101F10001970C8B210BC7047F8B506460F46144693
:101F2000D518AC4208D03A4614F8011B3046FFF7EA
:101F3000DDFF431CF5D100E00020F8BD2DE9F04F96
:101F40009DB00C4617460393064618B183690BB93A
:101F5000FFF7E4FE7F4B9C4201D1746808E07E4BA2
:101F60009C4201D1B46803E07C4B9C4208BFF468FA
:101F7000A38918070CD5236953B1002309932023A3
:101F80008DF8293030238DF82A30DFF8D4B144E0C1
:101F90002146304600F044FB0028EED04FF0FF30E1
:101FA000D5E0039A111D12680391002A80F28C80FB
:101FB000524243F002000792049098F800302E2B12
:101FC00000F08480032298F80010654800F0C8FCF7
:101FD00048B14023CBEB000003FA00F0049B08F16A
:101FE00001081843049098F8001006225D4808F193
:101FF00001078DF8281000F0B3FC002800F0958050
:10200000594B002B40F08880039B073323F00703D4
:1020100008330393099B53440993B846454615F882
:10202000013B1BB9B8EB07090FD003E0252BF9D012
:10203000A846F3E74B463A4621463046FFF76CFF89
:1020400001307FD0099B4B44099398F80030002B56
:1020500078D000234FF0FF32049307930592069344
:102060008DF853301A930127052229783F4800F054
:1020700077FC05F10108049B38B13C4A4546801ABB
:1020800007FA00F018430490EEE7D90644BF202277
:102090008DF853201A0744BF2B228DF853202A783D
:1020A0002A2A3FF47EAF079A00210A20A84698F812
:1020B00000300135303B092B03D800FB02320121EF
:1020C000F4E700293FF479AF079276E798F80130FA
:1020D0002A2B0BD1039B08F102081A1D1B680392DF
:1020E000002BB8BF4FF0FF3305936BE70023194671
:1020F000059308F101000A25804698F80020013078
:10210000303A092A03D805FB01210123F4E7002B0B
:102110003FF458AF059155E703AB00932246144BAB
:1021200004A93046AFF3008007E003AB00932246DA
:102130000F4B04A9304600F093F8B0F1FF3F824600
:102140007FF468AFA3895B063FF528AF09981DB0FF
:10215000BDE8F08F8C2B0008AC2B0008CC2B0008BE
:10216000F22B0008F62B000800000000EC2B000802
:10217000191F00082DE9F04791461F460A698B6830
:1021800006469342B8BF1346C9F8003091F8432081
:102190000C46DDF8208012B10133C9F80030236805
:1021A000990642BFD9F800300233C9F800302568DB
:1021B00015F0060510D104F1190A07E00123524673
:1021C00039463046C04701301AD00135E368D9F8A6
:1021D00000209B1A9D42F1DB94F8433022680033C3
:1021E00018BF012392060FD5E118302081F8430073
:1021F0005A1C94F845102244023382F8431003E03D
:102200004FF0FF30BDE8F08704F143023946304615
:10221000C0470130F4D02268D9F80050E36802F0DA
:102220000602042A08BF5D1B2269A3680CBF25EAC9
:10223000E57500259342C4BF9B1AED184FF00009C5
:102240001A344D4509D00123224639463046C0474D
:102250000130D5D009F10109F3E70020BDE8F0878E
:102260002DE9F04317460A7E85B06E2A9846064649
:102270000C460C9B01F1430E00F0AE8011D8632A8E
:1022800022D009D8002A00F0BB80582A40F0CA802A
:1022900081F84520834955E0642A1ED0692A1CD064
:1022A000C0E0732A00F0B08009D86F2A2ED0702ABF
:1022B00040F0B8800A6842F020020A603EE0752AC9
:1022C00024D0782A3AD0ADE01A6801F14205111DF8
:1022D0001960136884F84230A8E021681A6811F088
:1022E000800F02D0111D196008E011F0400F02F1BB
:1022F0000401196002D0B2F9003000E01368002B2D
:102300003CDA2D225B4284F8432037E021681A68CA
:1023100011F0800F02D0111D196007E011F0400F7D
:1023200002F10401196001D0138800E01368227ED5
:102330005C496F2A14BF0A2208221BE078225A49FE
:1023400084F845202268186812F0800F00F1040517
:102350001D6003D1550601D5038800E00368D0074E
:1023600044BF42F0200222601BB9226822F0200202
:1023700022601022002084F8430001E049490A222B
:102380006568002DA56008DB206820F0040020604F
:102390002BB9002D7DD175460CE0002B79D0754608
:1023A000B3FBF2F002FB1033CB5C05F8013D0346B2
:1023B0000028F5D1082A0BD12368DA0708D523694C
:1023C00062689A42DEBF302305F8013C05F1FF3513
:1023D000C5EB0E0323612EE008681A6810F0800F29
:1023E000496903D0101D1860136808E010F0400F11
:1023F00002F104001860136801D0198000E0196030
:1024000000232361754616E01A68111D19601568CE
:1024100000216268284600F0A3FA08B1401B606002
:10242000636804E004F1420584F84220012323613B
:10243000002384F84330CDF800803B4603AA2146B0
:102440003046FFF797FE013002D14FF0FF3026E013
:1024500023692A4639463046C0470130F5D0236803
:102460009B0710D5002504F1190907E001234A460E
:1024700039463046C0470130E7D00135E368039A5A
:102480009B1A9D42F2DBE068039B9842B8BF184656
:1024900005E00B7804F1420584F842308AE705B084
:1024A000BDE8F083FD2B00080E2C000838B5064C63
:1024B000002305460846236000F00AFB431C02D1B6
:1024C000236803B12B6038BDBC02002010B50C4658
:1024D000B1F90E1000F0A0FA0028ABBF636DA3891C
:1024E0001B1823F48053ACBF6365A38110BD2DE995
:1024F000F0411F468B890546DB050C46164605D57F
:1025000002230022B1F90E1000F0B8F9A389324677
:1025100023F48053A381B4F90E103B462846BDE84E
:10252000F04100F06BB810B50C46B1F90E1000F098
:10253000A5F9431CA38915BF606523F4805343F4B8
:102540008053A38118BFA38110BDB1F90E1000F014
:10255000D5B80000F8B50F461446064618B1836991
:102560000BB9FFF7DBFB224B9C4201D1746808E0FA
:10257000204B9C4201D1B46803E01F4B9C4208BF32
:10258000F468A369A360A3891A0709D523693BB13D
:1025900023682069FDB2181A636998420FDB08E0CE
:1025A0002146304600F03CF80028F1D04FF0FF30D3
:1025B000F8BD2146304600F037F90028F6D1A3686F
:1025C000013BA36023685A1C22601F706269431C90
:1025D000934204D0A389DB0707D50A2D05D12146F4
:1025E000304600F021F90028E0D12846F8BD00BFB0
:1025F0008C2B0008AC2B0008CC2B000838B5074CFE
:10260000054608461146002222601A46FDF794FE50
:10261000431C02D1236803B12B6038BDBC020020EB
:10262000324B70B51D6806460C4625B1AB6913B92F
:102630002846FFF773FB2E4B9C4201D16C6808E0E3
:102640002C4B9C4201D1AC6803E02B4B9C4208BF51
:10265000EC68B4F90C309AB215071DD4D00602D438
:10266000092232603AE0510712D5616B41B104F1A1
:102670004403994202D0304600F082F9002363639C
:10268000A38923F02403A3810023636023692360CB
:10269000A38943F00803A38123694BB9A38903F4F9
:1026A0002073B3F5007F03D02146304600F01CF9BB
:1026B000A28912F0010305D00023A36063695B4285
:1026C000A36103E0920758BF6369A36023695BB904
:1026D000B4F90C3003F0800080B230B143F0400315
:1026E000A3814FF0FF3070BD002070BD800000203E
:1026F0008C2B0008AC2B0008CC2B000838B5064CFE
:10270000002305460846236000F0BAF9431C02D1B5
:10271000236803B12B6038BDBC0200208A892DE9F3
:10272000F041054610070C4659D44B68002B02DCDB
:102730000B6C002B17DDE66AAEB102F48052002369
:1027400092B22F682B600AB1606D15E0216A0123F7
:102750002846B047411C0FD12B686BB11D2B01D00F
:10276000162B03D12F600020BDE8F081A38943F030
:102770004003A381BDE8F081A3895A0705D56368AA
:10278000C01A636B0BB1236CC01A00230246E66AC1
:10279000216A2846B047431CA38906D129681D2910
:1027A00039D8204ACA40D60735D50022626022694E
:1027B000D904226004D5421C01D12B6803B960659D
:1027C000616B2F600029CED004F14403994202D0FE
:1027D000284600F0D5F800206063BDE8F0810F695D
:1027E000002FC0D093070E680CBF4B690023C7EBC6
:1027F00006080F608B6002E00744C0EB0808B8F1E0
:10280000000FB0DD43463A46216A2846A66AB04723
:102810000028F1DCA38943F04003A3814FF0FF308F
:10282000BDE8F0810100402038B50B6905460C4633
:10283000DBB118B183690BB9FFF770FA0C4B9C42FE
:1028400001D16C6808E00B4B9C4201D1AC6803E0FD
:10285000094B9C4208BFEC68B4F90C302BB12146FF
:102860002846BDE83840FFF759BF002038BD00BFFB
:102870008C2B0008AC2B0008CC2B000838B5074C7B
:10288000054608461146002222601A4600F010F95B
:10289000431C02D1236803B12B6038BDBC02002069
:1028A00070B50E46B1F90E1090B0002914461D46C1
:1028B00006DA00232B60B3891A060ED540230EE0FA
:1028C00001AA00F0BBF80028F3DB029A02F4704280
:1028D000A2F500535A425A412A604FF48063002007
:1028E000236010B070BD00008B8973B59E0705464C
:1028F0000C4610D401AB6A46FFF7D2FF009906469A
:102900002846FFF795FA68B9B4F90C309A0522D435
:1029100043F00203A38104F14703236023610123F1
:10292000636118E00D4BAB62A389206043F0800324
:10293000A381009B20616361019B4BB1B4F90E1030
:10294000284600F08DF818B1A38943F00103A38154
:10295000A0893043A08102B070BD00BF9D1C00085B
:1029600010B5C9B202449042034605D01C7801302C
:102970008C42F8D1184610BD002010BD704770473A
:1029800038B50546002944D051F8043C0C1F002BF3
:10299000B8BFE418FFF7F2FF1E4A1368114613B9D7
:1029A0006360146030E0A3420DD92268A01883420E
:1029B00001BF18685B681218226063600C6023E036
:1029C000A24203D813465A68002AF9D11868191888
:1029D000A1420BD12168014458188242196013D1D9
:1029E00010685268014419605A600DE002D90C2346
:1029F0002B6009E021686018824201BF10685268AC
:102A00000918216062605C602846BDE83840FFF725
:102A1000B6BF38BDB000002038B5074C05460846A3
:102A20001146002222601A4600F04AF8431C02D1E7
:102A3000236803B12B6038BDBC02002038B5074CB9
:102A40000023054608461146236000F021F8431C88
:102A500002D1236803B12B6038BD00BFBC02002047
:102A600038B5064C002305460846236000F018F8E8
:102A7000431C02D1236803B12B6038BDBC02002087
:102A8000024B58221A604FF0FF307047BC02002002
:102A9000024B58221A604FF0FF307047BC020020F2
:102AA000024B58221A600020704700BFBC02002071
:102AB000024B58221A604FF0FF307047BC020020D2
:102AC000024B58221A604FF0FF307047BC020020C2
:102AD000044B0246196809B9034919601868024491
:102AE0001A607047B4000020C0020020FEE700001A
:102AF000F8B500BFF8BC08BC9E467047F8B500BFEB
:102B0000F8BC08BC9E467047706169720000000006
:102B1000524541445F52585F4D41535445523A200B
:102B200000000000524541445F464C4153483A2062
:102B30000000000070696E672C25732C25732C74BF
:102B40007275652C0A0000006C6F636B2C25732C6A
:102B500025732C6C6F636B2C0A0000006C6F636B29
:102B60002C25732C25732C6F70656E2C0A000000C9
:102B70006374726C000000006F70656E00000000EE
:102B800073796E6300430000200000200000000005
:102B90000000000000000000000000000000000035
:102BA0000000000000000000000000000000000025
:102BB0000000000000000000000000000000000015
:102BC0000000000000000000000000000000000005
:102BD00000000000000000000000000000000000F5
:102BE000000000000000000000000000232D302B3A
:102BF0002000686C4C0065666745464700303132FE
:102C00003334353637383941424344454600303154
:102C100032333435363738396162636465660000B3
:042C200000000000B0
:082C240024D5FF7F0100000030
:102C2C000100000000000000010203040102030483
:102C3C000607080902040608010101010100000051
:102C4C00000000008C2B0008AC2B0008CC2B0008DB
:102C5C000000000000000000000000000000000068
:102C6C00852B0008000000000000000000000000A0
:102C7C000000000000000000000000000000000048
:102C8C000000000000000000000000000000000038
:102C9C000000000000000000000000000000000028
:0C2CAC002000002011010008ED000008CD
:0400000508000000EF
:00000001FF
