:020000040800F2
:100000000050002089120008CF120008D112000809
:10001000D3120008D5120008D71200080000000013
:10002000000000000000000000000000D9120008DD
:10003000DB12000800000000DD120008BD0100080E
:10004000E3120008E5120008E7120008E9120008B0
:10005000EB120008ED120008EF120008F112000880
:10006000F3120008F5120008F7120008F912000850
:10007000FB120008FD120008FF120008011300081F
:1000800003130008051300080713000809130008EC
:100090000B1300080D1300080F13000811130008BC
:1000A000131300081513000817130008191300088C
:1000B000410C00081D1300081F130008211300083D
:1000C000231300082513000827130008291300082C
:1000D0002B130008750300082F13000835030008D0
:1000E00033130008351300083713000810B5054C0A
:1000F000237833B9044B13B10448AFF300800123D4
:10010000237010BD8C000020000000004425000872
:1001100008B5034B1BB103490348AFF3008008BD8A
:10012000000000009000002044250008A3F5803A5C
:10013000704700BF174B002B08BF134B9D46FFF7BE
:10014000F5FF00218B460F461348144A121A01F09E
:10015000B1F90E4B002B00D098470D4B002B00D06F
:1001600098470020002104000D000D48002802D00F
:100170000C48AFF3008001F079F92000290000F06D
:1001800027FF01F05FF900BF000008000000000039
:1001900000000000005000208C0000202003002000
:1001A00000000000000000006FF07F410722024BBA
:1001B00059601A60704700BF10E000E0024A1368FF
:1001C00001331360704700BF00000020A8B130B4B5
:1001D0000A4D0B4C2B68A168C1EB036101F58C3112
:1001E00001F5A0712A68A368A3EB02630B44002BFE
:1001F000F8DC0138EED130BC7047704700000020B9
:1002000010E000E030B5012187B0054644F204005B
:1002100000F03EFB00234FF44022174C02A9204679
:10022000CDE90332ADF81430029500F0BFFB012296
:10023000204640F2255100F025FC104B6846009303
:100240000F4D00F023F92046012100F00DFC0D4B6D
:10025000284601A9019300F061F904234FF480625C
:1002600028460DEB0301ADF804208DF8073000F0AF
:1002700055F907B030BD00BF00380140250000012E
:100280000008014000020118104662B130B4064C6B
:100290008D1823881B06FCD511F8013BA942A380C9
:1002A000F7D130BC704770470038014030B50121AC
:1002B00087B00546082000F0EBFA1B4C01214FF4F3
:1002C000802000F0F1FA194B20466946009300F0B7
:1002D00025F94FF40062042369462046ADF800205A
:1002E0008DF8033000F01AF900234FF44022A4F5F2
:1002F0004444204602A9CDE90332ADF814300295FA
:1003000000F054FB0122204640F2255100F0BAFBD8
:10031000074B01A8019300F0B9F82046012100F035
:10032000A3FB07B030BD00BF000C01400004031860
:100330002700000110B520210B4800F0C3FB002866
:10034000F9D0094800F0BAFB0849094A0C78631C47
:10035000DBB210551A4412F8012C0B700A2A04BFA4
:1003600000230B7010BD00BF00480040A900002012
:10037000BC00002010B520210B4800F0A3FB002892
:10038000F9D0094800F09AFB0849094A0C78631C27
:10039000DBB210551A4412F8012C0B700A2A04BF64
:1003A00000230B7010BD00BF00380140A8000020E2
:1003B000BC01002070B50D461646044601F0AFF8AA
:1003C00010F0FF0006D00138C2B2002120460132F1
:1003D00001F070F83EB1601E821935F8023B00F85A
:1003E000013F9042F9D170BD70B505460E4600F050
:1003F00081F8244BDA68D407FCD41A69214C42F006
:1004000002021A615E611A6942F040021A61E368F1
:10041000D807FCD4236923F001032361236923F067
:100420000203236100F066F82369284643F00103C4
:10043000236101F074F8144A10F0FF0F10700ED011
:10044000104C6B1EC5F10105E168C907FCD413F817
:10045000011F26F8021B1178E8188842F4DB094BCB
:10046000DA68D207FCD41A69642022F001021A610A
:100470001A6942F080021A61FFF7A8FEBDE87040D9
:1004800000F044B800200240BC020020C3780BB347
:1004900030B4164A0F23D2680121D243C2F302229C
:1004A0004478C2F1040523FA02F28378AC40134089
:1004B000234302780E4C1B012244DBB282F8003346
:1004C000037803F01F0201FA02F25B0944F82320CB
:1004D00030BC70470121037805485A0903F01F0317
:1004E000203201FA03F340F82230704700ED00E0BB
:1004F00000E100E0024B0349034A59605A6070472B
:100500000020024023016745AB89EFCD024A136901
:1005100043F08003136170470020024030B4CC7870
:10052000E20648BF8B7804F00F0548BF1D430B88D7
:1005300013F0FF0F15D0DB07026841D40B889C072E
:100540004AD45C0756D41C0762D4DC067CD49C06D3
:100550006CD45C0600F187801C0600F19380026079
:100560000B88FF2B1BD9DB05426800F1D4800B8878
:100570009C0500F1A7805C0500F1B8801C0500F126
:100580008C80DC0400F1FF809C0400F1D6805B04C9
:1005900000F1E780B1F90030002B02DB426030BC93
:1005A0007047CB7865F31F72282B03D14FF40043BB
:1005B0004361CB78482B04BF4FF400430361EDE760
:1005C00022F00F02282C42EA050200F0F880482CA5
:1005D000B4D101230361B1E7CC7822F0F002282CDA
:1005E00042EA051200F0EE80482CAAD102230361F2
:1005F0000B88A6E7CC7822F47062282C42EA052208
:1006000000F0E480482C9ED1042303610B889AE714
:10061000CC7822F47042282C42EA053200F0DE80C9
:10062000482C92D1082303610B888EE7CC7822F402
:100630007002282C42EA055200F0CC80482C88D168
:10064000202303610B8884E7CC7822F47022282CC5
:1006500042EA054200F0C680482C7FF478AF1023B0
:1006600003610B8873E7CC7822F07062282C42EA91
:10067000056200F09D80482C7FF46EAF402303613B
:100680000B8869E7CB7865F31F72282B00F0948004
:10069000482B04BF8023036161E7CB7822F47042CA
:1006A000282B42EA053203D14FF400634361CB7833
:1006B000482B04BF4FF4006303610B88DC047FF513
:1006C00063AF60E0CB7822F0F002282B42EA0512FB
:1006D00003D14FF400734361CB78482B04BF4FF430
:1006E000007303610B885C057FF548AFCB7822F47B
:1006F0007062282B42EA052203D14FF480634361E4
:10070000CB78482B04BF4FF4806303610B881C0532
:100710007FF537AFC1E7CB7822F00F02282B42EAF2
:10072000050203D14FF480734361CB78482B7FF4EB
:100730001EAF4FF48073036119E7CB7822F4700287
:10074000282B42EA055203D14FF400534361CB7882
:10075000482B04BF4FF4005303610B885B047FF503
:1007600019AFCB7822F07062282B42EA056203D1E0
:100770004FF480434361CB78482B7FF40BAF4FF4A9
:100780008043036106E7CB7822F47022282B42EAEB
:10079000054203D14FF480534361CB78482B04BF0B
:1007A0004FF4805303610B889C047FF5F0AEC4E7DF
:1007B000402343610B88CFE680234361CFE60123CA
:1007C0004361BBE6022343610B88BAE6042343611D
:1007D0000B88B8E6202343610B88BAE608234361FF
:1007E0000B88B2E6102343610B88B0E68368194298
:1007F00014BF0120002070470161704741617047BC
:1008000030B41E4A536803F00C03082B20D01C4B55
:1008100003601A4A1B4C51681B4DC1F30311615C04
:10082000CB4043605168C1F30221615C23FA01F1BE
:1008300081605168C1F3C221615CCB40C3605268E2
:10084000C2F38132AA5C30BCB3FBF2F303617047A0
:1008500053685168C3F38343C90303F1020307D507
:100860005268920304D4064A02FB03F30360D0E704
:10087000064A02FB03F30360CBE700BF001002400F
:1008800000127A00080000200400002000093D004A
:10089000044A936911B118439061704723EA00003C
:1008A0009061704700100240044AD36911B11843A7
:1008B000D061704723EA0000D06170470010024009
:1008C000264A038890429BB212D002F50062904201
:1008D0000ED0B0F1804F0BD0A2F59832904207D0E5
:1008E00002F58062904203D002F58062904203D10B
:1008F0004A8823F070031343194A904215D002F539
:100900008062904211D0CA8823F440739BB2134393
:1009100003808A88114B82850A88984202850CD10F
:100920000B7A038601238382704703808B8883853B
:100930000B8803850123838270470A4B9842EFD0CE
:1009400003F540639842EBD003F580639842E7D00B
:1009500003F580639842E3D0ECE700BF002C014030
:100960000010004000340140038821B19BB243F0E5
:1009700001030380704723F001031B041B0C038059
:10098000704700BF83899BB212B1194381817047C0
:1009900023EA010181817047038A194214BF0120B3
:1009A00000207047C94389B20182704730B50D46B7
:1009B0000446038ACA889BB223F44053134303823C
:1009C0008289888822F4B05323F00C031B04098920
:1009D0001B0C6A8903430B4313439BB2A381A38A75
:1009E000AA899BB223F44073134387B0A38201A862
:1009F000FFF706FFDDE903311948A289844208BFE9
:100A00000B4612F4004F2A6803EB830314BF520015
:100A1000920003EB8303B3FBF2F364221148A58930
:100A2000A0FB03C1490902FB11332A044FEA01115B
:100A30000AD41B013233A0FB0323C3F343130B433C
:100A40009BB2238107B030BDDB003233A0FB032310
:100A5000C3F3421242EA01039BB2238107B030BDC7
:100A6000003801401F85EB51838921B19BB243F4CB
:100A700000538381704723F400531B041B0C8381B4
:100A8000704700BF012310B401F01F04C1F34211ED
:100A9000012903FA04F30FD002290CBF10301430DF
:100AA00022B102681343036010BC7047026822EA57
:100AB0000303036010BC70470C30F1E78088C0F37B
:100AC000080070470388194214BF012000207047B6
:100AD00038B50023404C4FF4805140482370FFF755
:100AE0008BFE4FF400513D48FFF788FE40213C4803
:100AF000FFF782FE4FF400713848FFF777FE4FF49E
:100B000000713648FFF772FE60B1344D4FF400714A
:100B10002846FFF76BFE4FF400712846FFF766FE8C
:100B20000028F3D14FF480512C48FFF767FE4FF4B3
:100B300000512A48FFF762FE01212A4A02E0137899
:100B4000002B42D02378042BF9D902212448FFF747
:100B50004DFE02212248FFF749FE02212048FFF7FF
:100B600045FE002837D14FF400511C48FFF744FEE2
:100B70004FF480511948FFF741FE4FF48071174838
:100B8000FFF734FE4FF480711448FFF72FFE60B179
:100B9000124C4FF480712046FFF728FE4FF480710D
:100BA0002046FFF723FE0028F3D14FF480510B4875
:100BB000FFF724FE4FF400510848FFF71FFEBDE881
:100BC000384040210648FFF719BE23780133DBB2D5
:100BD00023701170B6E738BD1B000020000C0140E7
:100BE000000801401A000020012100B5084685B028
:100BF000FFF75AFE41F61F4342F20F7201A94FF070
:100C000080400193ADF80820FFF75AFE01214FF014
:100C10008040FFF7C7FE01224FF080401146FFF7EA
:100C2000B1FE01214FF08040FFF79EFE034B684666
:100C30000093FFF72BFC05B05DF804FB1C000A01D4
:100C400008B501214FF08040FFF7A6FEF0B100216A
:100C50001B4B1C481A780132D2B21A7001701A78F4
:100C6000012A04BF184A11701A78022A20D01A7873
:100C7000032A0CD01A780121032A84BF00221A709B
:100C80004FF08040BDE80840FFF78CBE08BD0F491B
:100C90000A780132D2B20A700A78022A02D1002000
:100CA0000B4A10700A78022A84BF00220A70E1E71A
:100CB0000021084A11701A78032ADBD1E7E700BF48
:100CC000AB0000201A0000201C000020AA00002019
:100CD000180000201900002010B5012182B0124C2C
:100CE0000820FFF7D5FD114B204601A90193FFF71E
:100CF00015FC0F4B204601A90193FFF70FFC0121C2
:100D00000420FFF7C5FDA4F580640A4B204601A925
:100D10000193FFF703FC084B204601A90193FFF75D
:100D2000FDFB02B010BD00BF000C014000700110BF
:100D30000003010407000104C00103102DE9F8437A
:100D40000D462C2190461F46814600F0D3FB089E9D
:100D5000044628B1002349462846237000F0D7FBFB
:100D6000651C28462C2100F0C5FB044628B1002351
:100D700029464046237000F0CAFB651C28462C21FA
:100D800000F0B8FB044628B10023294638462370FA
:100D900000F0BDFB013420462C2100F0ABFB0346E4
:100DA00038B100221A7021463046BDE8F84300F001
:100DB000AEBBBDE8F88300BF70B504218048FFF7E3
:100DC00015FD04217E48FFF711FD4FF480710546A3
:100DD0007C48FFF70BFD4FF480717A48FFF706FD62
:100DE0004FF4007104467748FFF700FD4FF400719F
:100DF0007448FFF7FBFC06461DB9002C42D00124C5
:100E000002E0003C18BF012402216D48FFF7EEFC10
:100E1000304310F0FF0F40F081804FF400516948DB
:100E2000FFF7EAFC4FF480516648FFF7E7FC4FF408
:100E300080716448FFF7DAFC01284FF48071614843
:100E40006DD0FFF7D3FC68B164B15E4C4FF4807194
:100E50002046FFF7CBFC4FF480712046FFF7C6FC1D
:100E60000028F3D14FF480515648FFF7C7FC4FF4E8
:100E700000515448FFF7C2FCBDE870404021504883
:100E8000FFF7BCBC02214E48FFF7B0FC0346002828
:100E9000BAD14D4C40214A482370FFF7ADFC4FF4C6
:100EA00080514848FFF7A8FC4FF400514548FFF730
:100EB000A5FC4FF400714348FFF798FC01284FF45C
:100EC0000071404830D0FFF791FC00B186BB4FF471
:100ED00080513C48FFF792FC4FF400513948FFF72E
:100EE0008DFC0121394A01E013787BB32378042B70
:100EF000FAD902213248FFF779FC02213048FFF786
:100F000075FC02212E48FFF771FC28B302212C4802
:100F1000FFF76CFC044600283FF47FAF70BDFFF77D
:100F200065FC00289ED090E7FFF760FC0028CED03B
:100F3000244D4FF400712846FFF758FC4FF4007120
:100F40002846FFF753FC0028C1D0F2E7237801338D
:100F5000DBB223701170C9E74FF400511948FFF755
:100F60004BFC4FF480511748FFF748FC4FF4807159
:100F70001448FFF73BFC4FF4807104461148FFF71B
:100F800035FC70B1012C0CD10E4C4FF48071204611
:100F9000FFF72CFC4FF480712046FFF727FC002858
:100FA000F3D14FF480510748FFF728FC4FF400516C
:100FB0000448FFF723FC40210148FFF71FFCA5E789
:100FC00000080140000C01401B0000201A00002016
:100FD0002DE98048402291B00021974800F06AFA3C
:100FE0000023964A96499748974C03700B702380CC
:100FF00013601371FFF7D8F8FFF76EFE4FF4966099
:10100000FFF700F94FF4E130FFF750F94FF480712A
:101010008E48FFF7F1FB80218C48FFF7EFFBFFF7CD
:10102000E3FD40218948FFF7E9FB01214FF08050A3
:10103000FFF73AFC864FDFF84492DFF844B2854E62
:10104000DFF8F481814D402231464046FFF7B2F986
:101050002C21404600F04EFA824628B1002341463A
:101060000370794800F053FA0AF1010A50462C2126
:1010700000F040FA044628B10023514603706F483F
:1010800000F045FA04F1010A50462C2100F032FA32
:10109000044628B10023514603706A4800F037FA2D
:1010A000013420462C2100F025FA28B100232146E6
:1010B0000370634800F02BFA01212846FFF796FBE6
:1010C00001212846FFF792FB002800F089803B7839
:1010D000DFF8B0A1604C0BB340212846FFF78CFB32
:1010E0005146204600F023FA58B131462046FFF71A
:1010F0007BF9204600F013FA00210246204600F05A
:10110000D9F931461E2208A8FFF754F9312108A861
:1011100000F0F0F9A8B93B78002BDDD1FFF74CFEC9
:1011200099F80030012BDAB218D099F80030022B70
:1011300035D09BF80030022B46D030BF40BF20BFD7
:1011400081E740212846FFF759FB00233B70FFF75A
:1011500033FE99F80030012BDAB2E6D13F4B1B7811
:10116000002BE2D13D4B4FF480513D481A70FFF700
:1011700045FB4FF400513A48FFF740FB0221284657
:10118000FFF734FB02212846FFF730FB2B4960B301
:10119000344800F097F999F80030022BC9D1324B4E
:1011A0001B78002BC5D14FF001012B4B2E4A1B7829
:1011B0001170F3B90023284A1360536093601373CE
:1011C0009BF80030022BB8D1284A1378002BB4D1F9
:1011D0004FF0010319492648137000F073F932E704
:1011E0004FF0010201233A7072E7224800F06AF9D9
:1011F0009BE706AB1848009302A904AB08AAFFF7C7
:101200009DFD1D4902A800F092F90028D2D00B489C
:1012100008A900F08CF90028CCD0312104A800F0F6
:1012200069F90028C6D0312106A800F063F900282A
:10123000C0D0FFF74DFCBDE7C00200200403002032
:10124000100300200C0300200003002000080140D0
:10125000AC00002000FC0108BC0100201C000020A4
:10126000000C01408824000819000020180000200C
:101270007824000898240008A8240008AB00002067
:10128000AA000020742400080649074A074B9A4226
:10129000BEBF51F8040B42F8040BF8E7044880473E
:1012A0000448004750250008000000208C00002062
:1012B00041130008350100081F49204A002301E0BE
:1012C00041F8043B9142FBD3FFF782FEFEE7FEE7C5
:1012D000FEE7FEE7FEE7FEE7FEE7FEE7FEE7FEE7E6
:1012E000FEE7FEE7FEE7FEE7FEE7FEE7FEE7FEE7D6
:1012F000FEE7FEE7FEE7FEE7FEE7FEE7FEE7FEE7C6
:10130000FEE7FEE7FEE7FEE7FEE7FEE7FEE7FEE7B5
:10131000FEE7FEE7FEE7FEE7FEE7FEE7FEE7FEE7A5
:10132000FEE7FEE7FEE7FEE7FEE7FEE7FEE7FEE795
:10133000FEE7FEE7FEE7FEE78C000020200300202A
:1013400030B400244FF41F053A4B3B4A196882B071
:1013500041F001011960596818460A405A601A683C
:1013600022F0847222F480321A601A6822F48022F9
:101370001A605A6822F4FE025A609D60009401943B
:101380001A6842F480321A6003E0009BB3F5A06F44
:1013900009D0036803F400330193009B01330093E9
:1013A000019B002BF1D0234B1B6813F4003318BFB3
:1013B00001230193019B012B06D04FF000621F4BCC
:1013C0009A6002B030BC70471D491A4B08681A4633
:1013D00040F010000860086820F00300086008680A
:1013E00040F00200086059685960596859605968AE
:1013F00041F480615960596821F47C115960596841
:1014000041F4E8115960196841F08071196013685E
:101410009B01FCD55368074923F0030353605368CD
:1014200043F0020353604B6803F00C03082BFAD11E
:10143000C3E700BF001002400000FFF800ED00E02D
:101440000020024008B5074B044613B10021AFF35A
:101450000080054B1868836A03B19847204600F066
:10146000FBFF00BF00000000AC24000870B50026A0
:101470000C4D0D4C641BA410A64209D100F0EEFFE8
:1014800000260A4D0A4C641BA410A64205D170BD6B
:1014900055F8043B98470136EEE755F8043B98476A
:1014A0000136F2E784000020840000208400002040
:1014B0008800002003460244934200D1704703F89D
:1014C000011BF9E70FB40A4B13B51C6824B1A369DB
:1014D00013B9204600F09AF805AB2046049AA1689B
:1014E000019300F0B5F902B0BDE8104004B07047B8
:1014F000200000200346C9B2184613F8012B12B190
:101500008A42F9D17047002918BF0020704703466E
:1015100011F8012B03F8012B002AF9D1704703467B
:1015200013F8012B002AFBD1181A01387047F0B5C7
:101530000C7864B103461A7818465E1C0AB9104646
:1015400005E0944208D10D4615F8012F02B9F0BD0F
:1015500013F8017F9742F7D03346ECE7002310B52C
:101560000446C0E90033C0E90433836081814366E7
:10157000C2818361194608225C30FFF79BFF054B4F
:1015800024626362044BA362044BE362044B236353
:1015900010BD00BFFD1D00081F1E0008571E0008DB
:1015A0007B1E0008014900F0AFB800BF55210008BC
:1015B00070B568254A1E55430E4605F1740100F0CA
:1015C000C5F8044640B10021C0E900160C30A06007
:1015D00005F16802FFF76EFF204670BD014800F07C
:1015E000B3B800BF19030020014800F0AEB800BF37
:1015F00019030020014800F0A7B800BF1403002021
:10160000014800F0A2B800BF1403002010B5044642
:10161000FFF7F0FFA3691BB1BDE81040FFF7F0BF73
:10162000C4E912332365134B134A1B68A262A34219
:1016300008BF0123204608BFA36100F01FF86060C7
:10164000204600F01BF8A060204600F017F80022AA
:101650000421E0606068FFF781FF01220921A06892
:10166000FFF77CFF02221221E068FFF777FF0123DA
:10167000A361D1E7AC240008A5150008F8B507461A
:10168000FFF7ACFF1E4B1E68B36913B93046FFF776
:10169000BDFF4836D6E90134013B03D533680BB3AF
:1016A0003668F7E7B4F90C50D5B9164B04F1580079
:1016B000E360656600F047F8FFF796FF08222946C9
:1016C000C4E90155C4E904552560A56104F15C0035
:1016D000FFF7F0FEC4E90D55C4E912552046F8BDE8
:1016E0006834D9E704213846FFF762FF04463060CA
:1016F0000028D5D1FFF778FF0C233B60EEE700BF51
:10170000AC2400080100FFFF2DE9F8430646884697
:10171000002700F14804D4E90195B9F1010905D584
:101720002468002CF7D13846BDE8F883AB89012B3B
:1017300007D9B5F90E30013303D029463046C047EA
:1017400007436835E9E7704770477047F8B5CD1C27
:1017500025F0030508350C2D38BF0C25002D064655
:1017600001DBA94203D90C2333600020F8BD00F04F
:10177000B1FD21490A6814469CB9204F3B6823B942
:101780002146304600F02AFB38602946304600F0FA
:1017900025FB431C23D10C233046336000F0A0FD11
:1017A000E3E723685B1B17D40B2B03D923601C448E
:1017B000256004E06368A2420CBF0B6053603046B2
:1017C00000F08EFD04F10B00231D20F00700C21A6B
:1017D000CCD01B1AA350C9E722466468CCE7C41CCE
:1017E00024F00304A042E3D0211A304600F0F6FAB8
:1017F0000130DDD1CFE700BFB0000020B4000020F1
:10180000936810B4013B002B936007DA9469A342FC
:1018100001DB0A2902D110BC00F034BB1368581C4C
:1018200010601970084610BC7047F8B506460F46A0
:101830001446D518AC4201D1002007E03A463046A4
:1018400014F8011BFFF7DCFF431CF3D1F8BD0000C7
:101850002DE9F04F0D461446984606469DB018B146
:1018600083690BB9FFF7D2FE894B9D421BD1756886
:101870006B6ED90705D4AB899A0502D4A86DFFF722
:1018800063FFAB891B0701D52B69EBB929463046AD
:1018900000F05CFBC0B16B6EDC070ED54FF0FF3083
:1018A0001DB0BDE8F08F7B4B9D4201D1B568DFE7ED
:1018B000794B9D4208BFF568DAE7AB899805EDD40E
:1018C000A86DFFF742FFE9E70023099320238DF875
:1018D000293030234FF00109CDF80C80DFF8BC81AE
:1018E0008DF82A3023469A4613F8012B0AB1252A8F
:1018F000F9D1BAEB040B0BD05B46224629463046A1
:10190000FFF793FF013000F0AA80099A5A44099228
:101910009AF80030002B00F0A28000234FF0FF3235
:10192000CDE905230AF1010A049307938DF853309A
:101930001A935446052214F8011B584800F0BCFCC9
:10194000049AD8B9D10644BF20238DF85330130729
:1019500044BF2B238DF853309AF800302A2B15D032
:10196000544600204FF00A0C079A214611F8013B1B
:10197000303B092B4ED9B0B1079214E0A0EB08031D
:1019800009FA03F31343A2460493D2E7039B191DFC
:101990001B680391002BBBBF5B4242F0020207931E
:1019A0000793B8BF049223782E2B0CD163782A2B8F
:1019B00035D1039B02341A1D1B680392002BB8BF5C
:1019C0004FF0FF330593DFF8E4A00322504621785F
:1019D00000F072FC40B14023A0EB0A0003FA00F0D3
:1019E000049B01340343049314F8011B06222C4882
:1019F0008DF8281000F060FC00283FD0294B1BBB5D
:101A0000039B073323F0070308330393099B3B44ED
:101A1000099367E70C4601200CFB0232A5E700237F
:101A20004FF00A0C194601340593204610F8012B9B
:101A3000303A092A03D9002BC5D00591C3E70446E3
:101A400001230CFB0121F0E703AB00932A4630464B
:101A5000154B04A9AFF300800746781CD6D16B6EF6
:101A6000D90705D4AB899A0502D4A86DFFF76DFE9E
:101A7000AB895B063FF512AF099811E703AB009302
:101A80002A463046084B04A900F082F8E4E700BF7C
:101A9000D0240008F0240008B02400081025000815
:101AA0001A250008000000002B1800081625000861
:101AB0002DE9F047164699468A680B690746934216
:101AC000B8BF1346336091F843200C46DDF8208000
:101AD0000AB1013333602368990642BF3368023389
:101AE0003360256815F0060506D104F1190AE3688C
:101AF00032689B1AAB4228DC94F84320131E2268FC
:101B000018BF012392062DD44946384604F14302FA
:101B1000C047013020D02368E56803F00603042B9A
:101B200018BF002532684FF00006A36808BFAD1A41
:101B3000226908BF25EAE5759342C4BF9B1AED18D8
:101B40001A34B5421AD1002008E001235246494612
:101B50003846C047013003D14FF0FF30BDE8F08771
:101B60000135C4E73020E11881F843005A1C94F88D
:101B700045102244023382F84310C5E70123224670
:101B800049463846C0470130E6D00136D9E7000063
:101B90002DE9FF470C46277E9146782F80469A46CE
:101BA0000C9904F1430207D8622F0AD8002F00F0E5
:101BB000D980582F00F0A48004F1420684F84270C6
:101BC0003AE0A7F16303152BF6D801A050F823F0F3
:101BD000291C00083D1C0008B91B0008B91B00089F
:101BE000B91B0008B91B00083D1C0008B91B000800
:101BF000B91B0008B91B0008B91B00084B1D0008E1
:101C00006D1C00082D1D0008B91B0008B91B000839
:101C10006D1D0008B91B00086D1C0008B91B0008E9
:101C2000B91B0008351D00080B6804F142061A1D97
:101C30001B680A6084F842300123A4E02568086824
:101C40002E0600F104030AD505680B60002D03DAA7
:101C50002D236D4284F843300A235E4819E015F0C5
:101C6000400F05680B6018BF2DB2EFE70B682568C1
:101C7000181D0860280601D51D6802E06906FBD51D
:101C80001D886F2F0CBF08230A235248002184F8B7
:101C900043106668002EA8BF2168A660A4BF21F08B
:101CA000040121600DB9002E4DD01646B5FBF3F1AD
:101CB00003FB1157C75D06F8017D2F46BB420D4659
:101CC000F4D9082B0BD12368DF0708D52369616895
:101CD0009942DEBF302306F8013C06F1FF36921B25
:101CE00022614B4621464046CDF800A003AAFFF7EB
:101CF000DFFE01304CD14FF0FF3004B0BDE8F0877B
:101D0000344884F845700E68236856F8045B1F0653
:101D10000E6014D5D90744BF43F0200323601DB9DA
:101D2000236823F0200323601023AFE7236843F0E8
:101D3000200323607823284884F84530E3E75E06D3
:101D400048BFADB2E6E71646BBE70B6826681D1D27
:101D500060690D6035061B6801D5186002E07106E8
:101D6000FBD51880002316462361BAE70B681A1DBD
:101D70000A601E6800213046626800F09DFA08B1D2
:101D8000801B606063682361002384F84330A8E708
:101D90003246494640462369D0470130ABD02368DC
:101DA0009B0713D4E068039B9842B8BF1846A4E78A
:101DB0000123324649464046D04701309BD0013589
:101DC000E36803995B1AAB42F2DCEBE7002504F110
:101DD0001906F5E7212500083225000838B500234B
:101DE000054D044608462B6000F028FB431C02D139
:101DF0002B6803B1236038BD1C03002010B50C46CE
:101E0000B1F90E1000F0BEFA0028ABBF636DA389D4
:101E10001B1823F48053ACBF6365A38110BD2DE96B
:101E2000F0411F468B890546DB050C46164605D555
:101E300002230022B1F90E1000F0C8F9A38932463E
:101E400023F48053A38128463B46B4F90E10BDE825
:101E5000F04100F069B810B50C46B1F90E1000F071
:101E6000B5F9431CA38915BF606523F4805343F47F
:101E70008053A38118BFA38110BDB1F90E1000F0EB
:101E8000D3B80000F8B50E461446054618B183696C
:101E90000BB9FFF7BBFB214B9C422BD16C68A369AC
:101EA000A360A3891A072FD523696BB32369206820
:101EB000F6B2C01A63693746834204DC21462846DD
:101EC00000F048F930BBA3680130013BA3602368F0
:101ED0005A1C22601E706369834204D0A389DB0709
:101EE00006D50A2E04D12146284600F033F988B9D8
:101EF0003846F8BD0A4B9C4201D1AC68CFE7094B8C
:101F00009C4208BFEC68CAE72146284600F01EF84C
:101F10000028CBD04FF0FF37EAE700BFD0240008FD
:101F2000F0240008B024000838B5044608461146DD
:101F30000022054D2A601A46FEF7A6F9431C02D17D
:101F40002B6803B1236038BD1C030020324B70B5F1
:101F50001D6806460C4625B1AB6913B92846FFF744
:101F600055FB2E4B9C420FD16C68A389B4F90C2011
:101F700019072CD4DD0611D40923336042F0400345
:101F80004FF0FF30A3813EE0254B9C4201D1AC686D
:101F9000EBE7244B9C4208BFEC68E6E7580712D5F4
:101FA000616B41B104F14403994202D0304600F024
:101FB0009DF900236363A38923F02403A3810023F5
:101FC000636023692360A38943F00803A381236925
:101FD0004BB9A38903F42073B3F5007F03D02146E6
:101FE000304600F029F9A089B4F90C2010F0010363
:101FF0000AD00023A36063695B42A361236943B9EC
:1020000010F08000BAD170BD810758BF6369A3602A
:10201000F4E70020F7E700BF20000020D0240008EC
:10202000F0240008B024000838B50023054D04460C
:1020300008462B6000F0DAF9431C02D12B6803B18B
:10204000236038BD1C0300208A892DE9F041054634
:1020500010070C4658D44B68002B05DC0B6C002B8A
:1020600002DC0020BDE8F081E66A002EF9D00023F2
:1020700012F480522F682B6032D0606DA3895A070A
:1020800005D56368C01A636B0BB1236CC01A0023BB
:102090000246E66A2846216AB047431CA38906D156
:1020A00029681D292CD82A4ACA40D60728D50022DB
:1020B00062602269D904226004D5421C01D12B68D8
:1020C00003B96065616B2F600029CAD004F1440335
:1020D000994202D0284600F009F900206063C1E768
:1020E000216A01232846B047411CC7D12B68002B29
:1020F000C4D01D2B01D0162B01D12F60B1E7A389CD
:1021000043F04003A381ADE70F69002FA9D09307E7
:1021100018BF00230E6808BF4B69A6EB07080F60C5
:102120008B60B8F1000F9CDD43463A462846216A91
:10213000A66AB047002806DCA3894FF0FF3043F0C1
:102140004003A3818EE70744A8EB0008E9E700BF3E
:102150000100402038B50B6905460C4613B900252F
:10216000284638BD18B183690BB9FFF74FFA144BF5
:102170009C421BD16C68B4F90C30002BEFD0626E1E
:10218000D00704D4990502D4A06DFFF7DDFA2846E4
:102190002146FFF759FF636E0546DA07E0D4A389AD
:1021A0009B05DDD4A06DFFF7D0FAD9E7054B9C4223
:1021B00001D1AC68DFE7044B9C4208BFEC68DAE76A
:1021C000D0240008F0240008B024000838B50446E4
:1021D000084611460022054D2A601A4600F01EF9F5
:1021E000431C02D12B6803B1236038BD1C030020BF
:1021F00070B50E46B1F90E10144600291D4696B072
:1022000007DA00232B60B3891A0610D44FF48063D9
:102210000EE06A4600F0C8F80028F2DB019A02F4EA
:102220007042A2F500535A425A412A60EEE7402319
:102230000020236016B070BD8B8973B59D070646DC
:102240000C4607D504F14703236023610123636132
:1022500002B070BD6A4601ABFFF7CAFF00990546A0
:102260003046FFF773FA48B9B4F90C309A05EFD449
:1022700023F0030343F00203A381E3E70D4BB362B2
:10228000A389206043F08003A381009B20616361E8
:10229000019B5BB13046B4F90E1000F097F828B1FD
:1022A000A38923F0030343F00103A381A08905431D
:1022B000A581CDE7A5150008034610B5C9B20244B3
:1022C0009342184601D1002003E0047801338C4288
:1022D000F6D110BD0148FFF737BA00BF1503002043
:1022E0000148FFF732BA00BF1503002038B5054694
:1022F000002943D051F8043C0C1F002BB8BFE41850
:10230000FFF7E8FF1E4A1368104633B96360146094
:102310002846BDE83840FFF7E3BFA3420AD9216849
:102320006218934201BF1A685B68521822606360AA
:102330000460EDE71A465B680BB1A342FAD9116855
:102340005018A0420BD120680144501883421160FC
:10235000DED118685B68014411605360D8E702D988
:102360000C232B60D4E7206821188B4201BF196829
:102370005B680918216063605460C9E738BD00BF1D
:10238000B000002038B50446084611460022054D2D
:102390002A601A4600F04AF8431C02D12B6803B1A8
:1023A000236038BD1C03002038B50023064D0446C9
:1023B000084611462B6000F021F8431C02D12B681F
:1023C00003B1236038BD00BF1C03002038B50023D3
:1023D000054D044608462B6000F018F8431C02D156
:1023E0002B6803B1236038BD1C0300205822024B28
:1023F0004FF0FF301A6070471C0300205822024B38
:102400004FF0FF301A6070471C0300205822024B27
:1024100000201A60704700BF1C0300205822024BA6
:102420004FF0FF301A6070471C0300205822024B07
:102430004FF0FF301A6070471C030020044A054922
:102440001368002B08BF0B461844106018467047ED
:10245000B800002020030020FEE700BFF8B500BF51
:10246000F8BC08BC9E467047F8B500BFF8BC08BC75
:102470009E467047706100002C70692C25732C31CA
:102480002C312C0D0A0000002C6C6B2C25732C3188
:102490002C312C0D0A0000002C6C6B2C25732C3178
:1024A0002C302C0D0A000000637400002400002072
:1024B000000000000000000000000000000000001C
:1024C000000000000000000000000000000000000C
:1024D00000000000000000000000000000000000FC
:1024E00000000000000000000000000000000000EC
:1024F00000000000000000000000000000000000DC
:1025000000000000000000000000000000000000CB
:10251000232D302B2000686C4C00656667454647CC
:10252000003031323334353637383941424344454F
:1025300046003031323334353637383961626364BE
:082540006566000000000000C8
:08254800E4DBFF7F010000004D
:10255000010000000204060800000000010203045C
:10256000010203040607080901010101010000003E
:102570002400002000000000D0240008F0240008FF
:10258000B02400080000000000000000000000006F
:10259000000000000000000000000000000000003B
:1025A000000000000000000000000000000000002B
:1025B000000000000000000000000000000000001B
:1025C000000000000000000000000000000000000B
:0C25D0000000000011010008ED000008F0
:0400000508000000EF
:00000001FF
